:0400000007EF00F016
:0A0008007B824AED18F046EF1BF072
:1006000000444154413A2C253034642C252E326666
:0D0610002C0D0A00696E66006E616E000020
:10061E00000E616E39C062F03AC063F03BC064F008
:10062E003CC065F065BE20EF03F01EEF03F034EF23
:10063E0003F0010E616E62C004F063C005F064C089
:10064E0006F065C007F012EC1BF004C062F005C0A6
:10065E0063F006C064F007C065F0000E676E000E12
:10066E00666E94C055F095C056F06150D8B442EF06
:10067E0003F044EF03F058EF03F06150D8A44AEFB3
:10068E0003F04CEF03F052EF03F0000E476E2B0E0B
:10069E00466E56EF03F0000E476E2D0E466E46C0A8
:1006AE0061F062C004F063C005F064C006F065C07E
:1006BE0007F066EC17F004040510D8A469EF03F0F8
:1006CE006BEF03F09CEF03F06150D8B471EF03F0C1
:1006DE0073EF03F07CEF03F061C000F15506D8A074
:1006EE005606000E676E010E666E000E6624046ED0
:1006FE00010E6720056E140E066E060E076ED2EC06
:10070E001AF0FD0E5526FF0E562237C014F038C0D3
:10071E0015F0000E166E010E176E55C018F056C06D
:10072E0019F0FCEC18F02BEF08F062C004F063C077
:10073E0005F064C006F065C007F066EC17F00450D3
:10074E000510D8A4ADEF03F0AFEF03F0CEEF03F03A
:10075E006150D8B4B5EF03F0B7EF03F0C0EF03F07C
:10076E0061C000F15506D8A05606000E676E010E48
:10077E00666E000E6624046E010E6720056E180E5E
:10078E00066E060E076ED2EC1AF088EF03F0000E1E
:10079E00686E000E696E800E6A6E3F0E6B6E000EF6
:1007AE00506E000E4F6E62C004F063C005F064C060
:1007BE0006F065C007F0000E086E000E096E000E02
:1007CE000A6E000E0B6EA7EC18F0D8B0F1EF03F026
:1007DE00F3EF03F0CEEF04F0FFEF03F051C068F03B
:1007EE0052C069F053C06AF054C06BF04F4A502AA1
:1007FE0068C012F069C013F06AC014F06BC015F037
:10080E00000E166E000E176E200E186E410E196E2B
:10081E0027EC0DF012C051F013C052F014C053F07B
:10082E0015C054F05150625C046E52506358056E00
:10083E0053506458066E54506558076E93EC19F079
:10084E0007BE35EF04F007500610051009E1020E41
:10085E00045CD8A035EF04F037EF04F0F5EF03F0A9
:10086E0051C02BF052C02CF053C02DF054C02EF0BE
:10087E0062C02FF063C030F064C031F065C032F05A
:10088E00E4EC16F0D8A04EEF04F050EF04F0F5EFC4
:10089E0003F06850625C046E69506358056E6A50CE
:1008AE006458066E6B506558076E93EC19F007BED0
:1008BE006EEF04F007500610051007E1020E045CFF
:1008CE00D8B06CEF04F06EEF04F0B5EF04F068C032
:1008DE0062F069C063F06AC064F06BC065F0CEEF81
:1008EE0004F068C004F069C005F06AC006F06BC081
:1008FE0007F0000E086E000E096E200E0A6E410EF5
:10090E000B6E3CEC0FF004C068F005C069F006C039
:10091E006AF007C06BF04F06D8A050066850625CB4
:10092E00046E69506358056E6A506458066E6B50BB
:10093E006558076E93EC19F007BEB3EF04F007503D
:10094E000610051007E1020E045CD8B0B1EF04F0FA
:10095E00B3EF04F0B5EF04F06EEF04F062C02BF0CD
:10096E0063C02CF064C02DF065C02EF068C02FF06F
:10097E0069C030F06AC031F06BC032F0E4EC16F0B2
:10098E00D8A0CCEF04F0CEEF04F078EF04F03DC029
:10099E0049F049C04AF078BED7EF04F0D9EF04F021
:1009AE00DFEF04F077C042F078C043F0E3EF04F0DD
:1009BE00000E436E060E426E42C04DF043C04EF026
:1009CE004D4A4E2A660E4A18D8A4F0EF04F0F2EF04
:1009DE0004F012EF05F050BEF9EF04F0F7EF04F05B
:1009EE0005EF05F0000E686E000E696E800E6A6EE1
:1009FE003F0E6B6E000E506E000E4F6E670E491856
:100A0E00D8B40CEF05F00EEF05F012EF05F04F50D5
:100A1E004D2650504E22000E606E000E5F6E62C06C
:100A2E0057F063C058F064C059F065C05AF068C002
:100A3E0051F069C052F06AC053F06BC054F0A2EF8F
:100A4E0005F057C004F058C005F059C006F05AC062
:100A5E0007F068C008F069C009F06AC00AF06BC000
:100A6E000BF03CEC0FF004C01DF005C01EF006C0EC
:100A7E001FF007C020F063EC12F01DC05BF01EC02B
:100A8E005CF01FC05DF020C05EF05BC004F05CC087
:100A9E0005F05DC006F05EC007F061EC16F004C014
:100AAE004BF005C04CF057C02BF058C02CF059C07D
:100ABE002DF05AC02EF05BC016F05CC017F05DC072
:100ACE0018F05EC019F068C012F069C013F06AC069
:100ADE0014F06BC015F027EC0DF012C02FF013C000
:100AEE0030F014C031F015C032F06AEC1AF02BC0A1
:100AFE0057F02CC058F02DC059F02EC05AF068C0D7
:100B0E0004F069C005F06AC006F06BC007F0000E75
:100B1E00086E000E096E200E0A6E410E0B6E3CEC36
:100B2E000FF004C068F005C069F006C06AF007C097
:100B3E006BF05F4A602A4D505F5C6050800A3E6EDB
:100B4E004E50800A3E58D8A0AFEF05F0B1EF05F039
:100B5E0028EF05F068C012F069C013F06AC014F0F7
:100B6E006BC015F0000E166E000E176EA00E186EEE
:100B7E00400E196E27EC0DF012C05BF013C05CF046
:100B8E0014C05DF015C05EF057C02BF058C02CF0AD
:100B9E0059C02DF05AC02EF05BC02FF05CC030F063
:100BAE005DC031F05EC032F0E4EC16F0D8B0E2EF8A
:100BBE0005F0E4EF05F0EEEF05F0000E5B6E000EB3
:100BCE005C6E000E5D6E000E5E6E16EF06F057C088
:100BDE0004F058C005F059C006F05AC007F05BC0CB
:100BEE0008F05CC009F05DC00AF05EC00BF0A7EC27
:100BFE0018F0D8A005EF06F007EF06F016EF06F096
:100C0E004BB00CEF06F00EEF06F016EF06F0000EEE
:100C1E005B6E000E5C6E000E5D6E000E5E6E62C050
:100C2E0004F063C005F064C006F065C007F05BC059
:100C3E0008F05CC009F05DC00AF05EC00BF0C7ECB6
:100C4E000AF004C057F005C058F006C059F007C0AE
:100C5E005AF057C02BF058C02CF059C02DF05AC086
:100C6E002EF0000E166E000E176E200E186E410E30
:100C7E00196E51C012F052C013F053C014F054C08C
:100C8E0015F027EC0DF012C02FF013C030F014C089
:100C9E0031F015C032F0E4EC16F0D8A059EF06F0A2
:100CAE005BEF06F082EF06F04F4A502A51C012F069
:100CBE0052C013F053C014F054C015F0000E166E4F
:100CCE00000E176E200E186E410E196E27EC0DF0E9
:100CDE0012C051F013C052F014C053F015C054F0AE
:100CEE00660E4A18D8A47EEF06F080EF06F082EF6B
:100CFE0006F04D4A4E2A51C068F052C069F053C0FA
:100D0E006AF054C06BF04FC040F050C041F0000E7E
:100D1E00486E000E456E000E446E000E606E000EA4
:100D2E005F6E7CEF07F057C004F058C005F059C055
:100D3E0006F05AC007F068C008F069C009F06AC032
:100D4E000AF06BC00BF03CEC0FF004C01DF005C0B8
:100D5E001EF006C01FF007C020F063EC12F01DC09D
:100D6E005BF01EC05CF01FC05DF020C05EF05BC08B
:100D7E0004F05CC005F05DC006F05EC007F061ECEB
:100D8E0016F005BED6EF06F0055007E10A0E045C1C
:100D9E00D8B0D4EF06F0D6EF06F0E6EF06F05BC063
:100DAE0004F05CC005F05DC006F05EC007F061ECBB
:100DBE0016F004C04BF005C04CF0EAEF06F0000E42
:100DCE004C6E090E4B6E4850D8A4F0EF06F0F2EFC1
:100DDE0006F01AEF07F041BEF9EF06F0F7EF06F056
:100DEE001AEF07F0000E6624D96E010E6720DA6E38
:100DFE002E0EDF6E664A672A5506D8A05606010EDD
:100E0E00486E1AEF07F0000E6624D96E010E6720A9
:100E1E00DA6E300EDF6E664A672A5506D8A0560681
:100E2E004406D8A0450644504510D8A421EF07F03B
:100E3E0023EF07F00AEF07F0000E6624D96E010EBD
:100E4E006720DA6E4B50300FDF6E664A672A550602
:100E5E00D8A0560657C02BF058C02CF059C02DF014
:100E6E005AC02EF05BC016F05CC017F05DC018F0D3
:100E7E005EC019F068C012F069C013F06AC014F0B9
:100E8E006BC015F027EC0DF012C02FF013C030F030
:100E9E0014C031F015C032F06AEC1AF02BC057F0C6
:100EAE002CC058F02DC059F02EC05AF068C004F076
:100EBE0069C005F06AC006F06BC007F0000E086E40
:100ECE00000E096E200E0A6E410E0B6E3CEC0FF0FA
:100EDE0004C068F005C069F006C06AF007C06BF088
:100EEE004006D8A041065F4A602A4D505F5C6050B4
:100EFE00800A3E6E4E50800A3E58D8B089EF07F0F9
:100F0E008BEF07F099EF07F067BE97EF07F067508A
:100F1E0009E14B0E665CD8A097EF07F099EF07F04A
:100F2E009AEF06F0000E606E4F0E5F6E000E5F249D
:100F3E00D96E010E6020DA6E000EDF6E000E3E6E70
:100F4E00010E3F6E66503E5E67503F5A5F503E2424
:100F5E00046E60503F20056E000E066E010E076E89
:100F6E0066C008F067C009F042EC1AF066505F5C8C
:100F7E00666E67506058676E6150D8A4C9EF07F06F
:100F8E00CCEF07F0010ECDEF07F0000E5F6E606A3A
:100F9E0079A2D4EF07F0D6EF07F004EF08F0E6EFF2
:100FAE0007F06606D8A06706000E6624D96E010EFD
:100FBE006720DA6E300EDF6E5506D8A056065550F5
:100FCE005F5C6050800A3E6E5650800A3E58D8B024
:100FDE00F3EF07F0F5EF07F004EF08F066505F5CF3
:100FEE006050800A3E6E6750800A3E58D8A002EFCD
:100FFE0008F004EF08F0D8EF07F06150D8B40AEF0C
:10100E0008F00CEF08F017EF08F06606D8A0670698
:10101E00000E6624D96E010E6720DA6E61C0DFFF06
:10102E005F50555E6050565A37C014F038C015F0F8
:10103E00000E6624166E010E6720176E55C018F04E
:10104E0056C019F0FCEC18F012006EC0D9FF6FC03C
:10105E00DAFFDECFF6FFDDCFF7FF0800F550250AE9
:10106E00D8A43CEF08F03EEF08F0B2EF0AF06EC0E5
:10107E00D9FF6FC0DAFFDE2A000EDD22000E00015E
:10108E00956F000E946F94C079F077687868000EB3
:10109E00B96F000EB86F7EEF08F079826EC0D9FF7F
:1010AE006FC0DAFFDE2A000EDD227EEF08F0000EA2
:1010BE00B96F010EB86F7EEF08F06EC0D9FF6FC02A
:1010CE00DAFFDECFF6FFDDCFF7FF0800F550726EC8
:1010DE00736A7350000AD8B477EF08F05EEF08F029
:1010EE007250300AD8B454EF08F05EEF08F0B851E1
:1010FE00B911D8B485EF08F087EF08F064EF08F067
:10110E006EC0D9FF6FC0DAFFDECFF6FFDDCFF7FF7F
:10111E000800F5502A0AD8A497EF08F099EF08F0C6
:10112E00C2EF08F06EC0D9FF6FC0DAFFDE2A000EE4
:10113E00DD2270C0D9FF71C0DAFFDFCF72F0020E70
:10114E00DE26DFCF73F0000EDD2272C0D9FF73C032
:10115E00DAFFDECF94F0DDCF95F095BFBBEF08F050
:10116E00B9EF08F0F5EF08F07980946D951FD8B0BF
:10117E00952BF5EF08F06EC0D9FF6FC0DAFFDECF0A
:10118E000AF0DDCF0BF0BCEC15F00AC094F00BC0EA
:10119E0095F0D9EF08F06EC0D9FF6FC0DAFFDE2AE6
:1011AE00000EDD226EC0D9FF6FC0DAFFDECFF6FF74
:1011BE00DDCFF7FF0800F5CF72F0D00E7224736EFC
:1011CE00746AFF0E7422745009E10A0E735CD8A083
:1011DE00F3EF08F0F5EF08F0D2EF08F06EC0D9FF8C
:1011EE006FC0DAFFDECFF6FFDDCFF7FF0800F55058
:1011FE002E0AD8A405EF09F007EF09F074EF09F0F5
:10120E00000E786E000E776E6EC0D9FF6FC0DAFFDB
:10121E00DE2A000EDD226EC0D9FF6FC0DAFFDECFF0
:10122E00F6FFDDCFF7FF0800F5502A0AD8A422EF0B
:10123E0009F024EF09F041EF09F06EC0D9FF6FC03D
:10124E00DAFFDE2A000EDD2270C0D9FF71C0DAFF90
:10125E00DFCF72F0020EDE26DFCF73F0000EDD223E
:10126E0072C0D9FF73C0DAFFDECF77F0DDCF78F032
:10127E0074EF09F06EC0D9FF6FC0DAFFDECF0AF04F
:10128E00DDCF0BF0BCEC15F00AC077F00BC078F098
:10129E0058EF09F06EC0D9FF6FC0DAFFDE2A000EDC
:1012AE00DD226EC0D9FF6FC0DAFFDECFF6FFDDCFD5
:1012BE00F7FF0800F5CF72F0D00E7224736E746AC9
:1012CE00FF0E7422745009E10A0E735CD8A072EFFF
:1012DE0009F074EF09F051EF09F06EC0D9FF6FC03D
:1012EE00DAFFDECFC3F0DDCFC4F0C3C0F6FFC4C05B
:1012FE00F7FF0800F550640AD8B488EF09F08AEFBA
:10130E0009F098EF09F0C3C0F6FFC4C0F7FF08005C
:10131E00F550690AD8A496EF09F098EF09F0DCEFC2
:10132E0009F070C0D9FF71C0DAFFDFCF72F0020E84
:10133E00DE26DFCF73F0000EDD2272C0D9FF73C040
:10134E00DAFFDECFBAF0DDCFBBF00001000EBBBF7F
:10135E00FF0EBC6FBD6FBE6FBF6FC06FC16F010E52
:10136E00C325726E000EC421736E6EC0D9FF6FC09E
:10137E00DAFF72C0DEFF73C0DDFF6CC01FF06DC000
:10138E0020F0BAC021F0BBC022F0BCC023F0BDC01B
:10139E0024F0BEC025F0BFC026F0C0C027F0C1C0EB
:1013AE0028F009EC11F0C6EF0AF06EC0D9FF6FC03D
:1013BE00DAFFDECFC3F0DDCFC4F0C3C0F6FFC4C08A
:1013CE00F7FF0800F5CFC2F0F9EF09F0C34BC42BBD
:1013DE0013EF0AF06C0EC26F13EF0AF0000EC26F1D
:1013EE0013EF0AF00001C251726E736A7350000A55
:1013FE00D8B404EF0AF0F5EF09F072504C0AD8B4E5
:10140E00EDEF09F02A0AD8B4F1EF09F00A0AD8B4C0
:10141E00EDEF09F0F5EF09F0C3C0F6FFC4C0F7FF1A
:10142E000800F550660AD8A41FEF0AF021EF0AF063
:10143E00A9EF0AF057EF0AF070C0D9FF71C0DAFFBA
:10144E00DFCF72F0040EDE26DFCF73F0000EDD224A
:10145E0072C0D9FF73C0DAFFDECFBAF0DECFBBF0B9
:10146E00DECFBCF0DECFBDF06CEF0AF070C0D9FF5E
:10147E0071C0DAFFDFCF72F0040EDE26DFCF73F01D
:10148E00000EDD2272C0D9FF73C0DAFFDECFBAF0D4
:10149E00DECFBBF0DECFBCF0DECFBDF06CEF0AF0DE
:1014AE00C251726E736A7350000AD8B461EF0AF0BB
:1014BE006CEF0AF072504C0AD8B43DEF0AF0200AD5
:1014CE00D8B423EF0AF06CEF0AF0010EC325726E4A
:1014DE00000EC421736E6EC0D9FF6FC0DAFF72C0EA
:1014EE00DEFF73C0DDFF93EF0AF06CC037F06DC006
:1014FE0038F0BAC039F0BBC03AF0BCC03BF0BDC04A
:10150E003CF0C3C0F6FFC4C0F7FF0800F5CF3DF0B6
:10151E000FEC03F0C6EF0AF0C3C0F6FFC4C0F7FF2E
:10152E000800F550726E736A7350000AD8B4A2EFB9
:10153E000AF0A9EF0AF07250660AD8B47CEF0AF0EE
:10154E00A9EF0AF06EC0D9FF6FC0DAFFDE2A000ED7
:10155E00DD22C6EF0AF06EC0D9FF6FC0DAFFDECF14
:10156E00F6FFDDCFF7FF0800F550046E056A6CC07C
:10157E0006F06DC007F0E5EC17F0A9EF0AF01200C7
:10158E000750800B106E07500724126E06AED2EF76
:10159E000AF0D4EF0AF0D5EF0AF012801250D8B448
:1015AE00DBEF0AF0DDEF0AF0F2EF0AF01228D8A412
:1015BE00E3EF0AF0E5EF0AF0EDEF0AF0000E046E2D
:1015CE00000E056E000E066E000E076E068E000EE5
:1015DE00076EFAEF0AF0000E046E000E056E000E96
:1015EE00066E000E076E0B50800B116E1050111808
:1015FE00D8B404EF0BF006EF0BF007EF0BF0108CE6
:10160E000B500B24116E0AAE0FEF0BF011EF0BF017
:10161E0012EF0BF011801150D8B418EF0BF01AEF37
:10162E000BF02FEF0BF01128D8A420EF0BF022EFC8
:10163E000BF02AEF0BF0000E086E000E096E000E76
:10164E000A6E000E0B6E0A8E000E0B6E37EF0BF04D
:10165E00000E086E000E096E000E0A6E000E0B6E66
:10166E001250115CD8B03EEF0BF040EF0BF067EF6D
:10167E000BF010AC45EF0BF047EF0BF049EF0BF012
:10168E00800E101A12C013F011C012F013C011F018
:10169E0004C013F008C004F013C008F005C013F026
:1016AE0009C005F013C009F006C013F00AC006F019
:1016BE0013C00AF007C013F00BC007F013C00BF0F5
:1016CE00000E136E125011C00CF00D6A0C5E000E5F
:1016DE000D5A0DBE7CEF0BF00D5009E11A0E0C5C8D
:1016EE00D8A07CEF0BF07EEF0BF0B5EF0BF00450B3
:1016FE00051006100710D8A487EF0BF08AEF0BF039
:10170E00010E8BEF0BF0000E136E000E046E000E2A
:10171E00056E000E066E000E076E11C012F0BEEFC3
:10172E000BF013A09DEF0BF09FEF0BF0A5EF0BF05E
:10173E00D89013300109136EA7EF0BF0D890133227
:10174E0004A0ACEF0BF0AEEF0BF0AFEF0BF0138E7F
:10175E0007340732063205320432122A1150125C57
:10176E00D8A0BCEF0BF0BEEF0BF098EF0BF010BC57
:10177E00C3EF0BF0C5EF0BF005EF0CF01250D8A431
:10178E00CBEF0BF0CDEF0BF0D7EF0BF0000E046E9E
:10179E00000E056E000E066E000E076E26EF0DF0A3
:1017AE0008500426095005220A5006220B50072223
:1017BE0007A0E4EF0BF0E6EF0BF092EF0CF013A0A6
:1017CE00EBEF0BF0EDEF0BF0F3EF0BF0D8901330D7
:1017DE000109136EF5EF0BF0D890133204A0FAEF57
:1017EE000BF0FCEF0BF0FDEF0BF0138E073407320E
:1017FE00063205320432122A92EF0CF00850045CC5
:10180E00095005580A5006580750800A0C6E0B50A6
:10181E00800A0C58D8B016EF0CF018EF0CF043EF0E
:10182E000CF00450085C0C6E055009580D6E0650F5
:10183E000A580E6E07500B580F6EFF0E0C24046ED6
:10184E00FF0E0D20056EFF0E0E20066EFF0E0F20F2
:10185E00076E800E101A136C1350D8A439EF0CF0CB
:10186E003BEF0CF04BEF0CF0010E0426000E0522A0
:10187E00062207224BEF0CF00850045E0950055A61
:10188E000A50065A0B50075A04500510061007103E
:10189E00D8A454EF0CF056EF0CF08BEF0CF0135065
:1018AE00D8A45CEF0CF05EEF0CF08BEF0CF0000E9A
:1018BE00046E000E056E000E066E000E076E26EF0D
:1018CE000DF0D890043605360636073613AE72EF95
:1018DE000CF074EF0CF075EF0CF0048013A07AEF9F
:1018EE000CF07CEF0CF080EF0CF0D880133682EF0A
:1018FE000CF0D89013361250D8B488EF0CF08AEF53
:10190E000CF08BEF0CF0120606AE90EF0CF092EF8F
:10191E000CF068EF0CF0000E116E13AE99EF0CF098
:10192E009BEF0CF0B3EF0CF013C00CF07F0E0C1607
:10193E00D8B4A4EF0CF0A6EF0CF0AAEF0CF0010E49
:10194E00116EB3EF0CF004A0AFEF0CF0B1EF0CF092
:10195E00B3EF0CF0A6EF0CF01150D8B4B9EF0CF0B9
:10196E00BBEF0CF0E6EF0CF0010E0426000E052284
:10197E000622072207A0C6EF0CF0C8EF0CF0E6EF28
:10198E000CF004C00CF005C00DF006C00EF007C040
:10199E000FF00F340F320E320D320C320CC004F039
:1019AE000DC005F00EC006F00FC007F01228D8B417
:1019BE00E3EF0CF0E5EF0CF0E6EF0CF0122A122834
:1019CE00D8B4ECEF0CF0EEEF0CF0F6EF0CF012508A
:1019DE00D8A4F4EF0CF0F6EF0CF008EF0DF0000EBB
:1019EE00046E000E056E000E066E000E076E12508F
:1019FE00D8A404EF0DF006EF0DF008EF0DF0000E79
:101A0E00106E12A00DEF0DF00FEF0DF012EF0DF0A6
:101A1E00068E13EF0DF0069ED8901230076E10AEA4
:101A2E001BEF0DF01DEF0DF01EEF0DF0078E04C035
:101A3E0004F005C005F006C006F007C007F012005E
:101A4E001550800B1E6E15501524246E14AE32EFF9
:101A5E000DF034EF0DF035EF0DF024802450D8B496
:101A6E003BEF0DF03DEF0DF050EF0DF02428D8A414
:101A7E0043EF0DF045EF0DF04DEF0DF0000E126E31
:101A8E00000E136E000E146E000E156E148E58EFAF
:101A9E000DF0000E126E000E136E000E146E000E80
:101AAE00156E1950800B1E1A195019241F6E18AE80
:101ABE0063EF0DF065EF0DF066EF0DF01F801F5018
:101ACE00D8B46CEF0DF06EEF0DF081EF0DF01F2816
:101ADE00D8A474EF0DF076EF0DF07EEF0DF0000E42
:101AEE00166E000E176E000E186E000E196E188E02
:101AFE0089EF0DF0000E166E000E176E000E186EAA
:101B0E00000E196E1F50D8B48FEF0DF091EF0DF03F
:101B1E0099EF0DF02450D8A497EF0DF099EF0DF03A
:101B2E00A3EF0DF0000E126E000E136E000E146E6B
:101B3E00000E156E3BEF0FF018501202F3CF29F086
:101B4E00F4CF2AF02950206E216A226A236A2A5085
:101B5E00256E266A276A286A17501302F3CF29F0DA
:101B6E00F4CF2AF029502026000E212222222322F1
:101B7E002A502526000E262227222822165014022D
:101B8E00F3CF29F0F4CF2AF029502026000E21227F
:101B9E00222223222A502526000E26222722282200
:101BAE0022C023F021C022F020C021F0206A16505E
:101BBE001302F3CF29F0F4CF2AF0295020262A5011
:101BCE002122000E2222000E232217501202F3CFE2
:101BDE0029F0F4CF2AF0295020262A502122000E77
:101BEE002222000E232222C023F021C022F020C088
:101BFE0021F0206A16501202F3CF29F0F4CF2AF00A
:101C0E00295020262A502122000E2222000E2322A5
:101C1E0018501302F3CF29F0F4CF2AF029502526BD
:101C2E002A502622000E2722000E282217501402B8
:101C3E00F3CF29F0F4CF2AF0295025262A50262258
:101C4E00000E2722000E282218501402F3CF29F07E
:101C5E00F4CF2AF029501A6E2A501B6E1C6A1D6A88
:101C6E001CC01DF01BC01CF01AC01BF01A6A1A50C3
:101C7E0025261B5026221C5027221D50282220C00C
:101C8E001AF021C01BF022C01CF023C01DF0190E4B
:101C9E0056EF0EF0D8901D321C321B321A32E82E3F
:101CAE0051EF0EF01A5025261B5026221C502722CB
:101CBE001D50282222C023F021C022F020C021F086
:101CCE00206A1F5024C01AF01B6A1A26000E1B220F
:101CDE00820E1A24296EFF0E1B202A6E8CEF0EF038
:101CEE00D890253626362736283623AE81EF0EF0CD
:101CFE0083EF0EF084EF0EF02580D890203621363B
:101D0E00223623362906D8A02A0627AE91EF0EF0EA
:101D1E0093EF0EF077EF0EF0000E1F6E23AE9AEFDC
:101D2E000EF09CEF0EF0C0EF0EF0FF0E20141A6EA8
:101D3E00FF0E21141B6EFF0E22141C6E7F0E231439
:101D4E001D6E1A501B101C101D10D8B4B1EF0EF0E2
:101D5E00B3EF0EF0B7EF0EF0010E1F6EC0EF0EF0E8
:101D6E0025A0BCEF0EF0BEEF0EF0C0EF0EF0B3EFFD
:101D7E000EF01F50D8B4C6EF0EF0C8EF0EF0ECEF19
:101D8E000EF0010E2526000E26222722282228A03C
:101D9E00D3EF0EF0D5EF0EF0ECEF0EF025C01AF0EB
:101DAE0026C01BF027C01CF028C01DF01D341D32AC
:101DBE001C321B321A321AC025F01BC026F01CC072
:101DCE0027F01DC028F0294A2A2A2ABEF7EF0EF066
:101DDE002A5008E12928D8A0F7EF0EF0F9EF0EF0FF
:101DEE0003EF0FF0000E256E000E266E800E276E8E
:101DFE007F0E286E31EF0FF02ABE10EF0FF02A5033
:101E0E0006E12904D8B00EEF0FF010EF0FF01CEF23
:101E1E000FF0000E256E000E266E000E276E000EC1
:101E2E00286E000E1E6E31EF0FF029C024F0FF0E4B
:101E3E002516FF0E26167F0E2716000E281624A036
:101E4E002BEF0FF02DEF0FF02EEF0FF0278ED89017
:101E5E002430286E1E50281225C012F026C013F012
:101E6E0027C014F028C015F012000750800B146E16
:101E7E00075007241B6E06AE47EF0FF049EF0FF029
:101E8E004AEF0FF01B801B50D8B450EF0FF052EFFB
:101E9E000FF067EF0FF01B28D8A458EF0FF05AEF92
:101EAE000FF062EF0FF0000E046E000E056E000EC6
:101EBE00066E000E076E068E000E076E6FEF0FF0A9
:101ECE00000E046E000E056E000E066E000E076EFE
:101EDE000B50800B141A0B500B241C6E0AAE7AEFAB
:101EEE000FF07CEF0FF07DEF0FF01C801C50D8B47C
:101EFE0083EF0FF085EF0FF09AEF0FF01C28D8A4A8
:101F0E008BEF0FF08DEF0FF095EF0FF0000E086EC8
:101F1E00000E096E000E0A6E000E0B6E0A8E000E7B
:101F2E000B6EA2EF0FF0000E086E000E096E000E83
:101F3E000A6E000E0B6E085009100A100B10D8A472
:101F4E00ABEF0FF0ADEF0FF0C5EF0FF0000E046E1C
:101F5E00000E056E000E066E000E076E800E061247
:101F6E007F0E07121450071204C004F005C005F0CE
:101F7E0006C006F007C007F008EF11F01B50D8A4FA
:101F8E00CBEF0FF0CDEF0FF0D7EF0FF0000E046E8A
:101F9E00000E056E000E066E000E076E08EF11F0B5
:101FAE001C501BC00CF00D6A0C5E000E0D5A7F0EFD
:101FBE000C24156E000E0D20166E04C010F005C018
:101FCE0011F006C012F007C013F0000E046E000EE2
:101FDE00056E000E066E000E076E000E176E000EDA
:101FEE00186E000E196E000E1A6E000E1C6E38EF73
:101FFE0010F01C50D8B406EF10F008EF10F01FEFE1
:10200E0010F0D8901036113612361336D89004369A
:10201E000536063607361AAE17EF10F019EF10F028
:10202E001AEF10F00480D8901736183619361A3673
:10203E000850105C095011580A5012580B50135882
:10204E00D8A02CEF10F02EEF10F037EF10F01A8C06
:10205E000850105E0950115A0A50125A0B50135A5A
:10206E001C2A190E1C643EEF10F040EF10F000EF2A
:10207E0010F01050111012101310D8B449EF10F0C8
:10208E004BEF10F063EF10F0178063EF10F0D89065
:10209E0004360536063607361AAE58EF10F05AEFEC
:1020AE0010F05BEF10F00480D89017361836193602
:1020BE001A361506D8A0160606AE68EF10F06AEFAF
:1020CE0010F04EEF10F0000E1C6E1AAE71EF10F005
:1020DE0073EF10F097EF10F0FF0E17140C6EFF0E4B
:1020EE0018140D6EFF0E19140E6E7F0E1A140F6E4D
:1020FE000C500D100E100F10D8B488EF10F08AEFA0
:10210E0010F08EEF10F0010E1C6E97EF10F004A081
:10211E0093EF10F095EF10F097EF10F08AEF10F0AC
:10212E001C50D8B49DEF10F09FEF10F0C3EF10F0DD
:10213E00010E0426000E05220622072207A0AAEF92
:10214E0010F0ACEF10F0C3EF10F004C00CF005C0AF
:10215E000DF006C00EF007C00FF00F340F320E3226
:10216E000D320C320CC004F00DC005F00EC006F09E
:10217E000FC007F0154A162A16BECEEF10F01650F5
:10218E0008E11528D8A0CEEF10F0D0EF10F0DBEF5D
:10219E0010F0000E166E1568000E046E000E056E21
:1021AE00000E066E000E076E16BEE8EF10F016500B
:1021BE0006E11504D8B0E6EF10F0E8EF10F0F6EFF8
:1021CE0010F0000E166E000E156E000E046E000E50
:1021DE00056E000E066E000E076E000E146E15C014
:1021EE001BF01BA0FDEF10F0FFEF10F002EF11F04F
:1021FE00068E03EF11F0069ED8901B30076EB9EFD6
:10220E000FF0120021C037F022C038F023C039F091
:10221E0024C03AF025C03BF026C03CF027C03DF06C
:10222E0028C03EF03EBE1EEF11F021EF11F0010E60
:10223E0022EF11F0000E3F6E3F50D8B429EF11F08F
:10224E002BEF11F03BEF11F03E1E3D1E3C1E3B1ED0
:10225E003A1E391E381E376C000E382239223A22A9
:10226E003B223C223D223E2278BE40EF11F042EF4F
:10227E0011F043EF11F0799278BE50EF11F07850D3
:10228E0006E17704D8B04EEF11F050EF11F056EF93
:10229E0011F0000E346E010E336E5AEF11F077C04E
:1022AE0033F078C034F094C035F095C036F03F501E
:1022BE00D8B464EF11F066EF11F07DEF11F0350632
:1022CE00D8A036063F50D8A46FEF11F071EF11F081
:1022DE0077EF11F0000E326E2B0E316E7BEF11F098
:1022EE00000E326E2D0E316E31C03FF0000E416E7B
:1022FE004F0E406E000E01014F6F02EF12F04006BE
:10230E00D8A04106000E4024D96E010E4120DA6E8F
:10231E0037C004F038C005F039C006F03AC007F0F7
:10232E003BC008F03CC009F03DC00AF03EC00BF0C7
:10233E000A0E0C6E000E0D6E000E0E6E000E0F6E5F
:10234E00000E106E000E116E000E126E000E136E49
:10235E000AEC15F004C029F005C02AF006C02BF0D7
:10236E0007C02CF008C02DF009C02EF00AC02FF0C7
:10237E000BC030F029C016F02AC017F0F2EC1AF09C
:10238E001650300FDF6E3306D8A034063506D8A0AF
:10239E00360637C004F038C005F039C006F03AC032
:1023AE0007F03BC008F03CC009F03DC00AF03EC04B
:1023BE000BF00A0E0C6E000E0D6E000E0E6E000E61
:1023CE000F6E000E106E000E116E000E126E000ECD
:1023DE00136E46EC14F004C037F005C038F006C09A
:1023EE0039F007C03AF008C03BF009C03CF00AC013
:1023FE003DF00BC03EF041BE0DEF12F0415008E132
:10240E004004D8A00DEF12F00FEF12F03FEF12F0D4
:10241E003750381039103A103B103C103D103E101A
:10242E00D8A41CEF12F01EEF12F086EF11F034BE9E
:10243E002BEF12F0345006E13304D8B029EF12F02E
:10244E002BEF12F086EF11F036BE36EF12F036504B
:10245E0008E13504D8A036EF12F038EF12F03FEF56
:10246E0012F079B23DEF12F03FEF12F086EF11F05D
:10247E003F50D8B445EF12F047EF12F052EF12F082
:10248E004006D8A04106000E4024D96E010E412010
:10249E00DA6E3FC0DFFF1FC014F020C015F0000E33
:1024AE004024166E010E4120176E35C018F036C04E
:1024BE0019F0FCEC18F0120088C02DF089C02EF037
:1024CE008AC02FF08BC030F01DC02DF01EC02EF034
:1024DE001FC02FF020C030F0810E216EFF0E226E35
:1024EE002DC023F02EC024F02FC025F030C026F0D2
:1024FE00180E87EF12F0D89026322532243223326E
:10250E00E82E82EF12F0235021242B6E000E222093
:10251E002C6E2CBE9CEF12F02C5009E1170E2B5C8A
:10252E00D8A09CEF12F09EEF12F0A8EF12F01DC093
:10253E001DF01EC01EF01FC01FF020C020F06BEF5C
:10254E0013F02CBEADEF12F0AFEF12F01FEF13F041
:10255E002BC021F0FF0E226EFF0E236E7F0E246E17
:10256E00000E256E2166BEEF12F0C6EF12F0253476
:10257E002532243223322232212EB9EF12F022C01C
:10258E0027F023C028F024C029F025C02AF02750B8
:10259E002D14216E28502E14226E29502F14236EC6
:1025AE002A503014246E2150221023102410D8A447
:1025BE00E3EF12F0E5EF12F0E7EF12F09EEF12F0FC
:1025CE002DC021F02EC022F02FC023F030C024F0F9
:1025DE00200EF7EF12F0D89024322332223221321D
:1025EE00E82EF2EF12F02150221023102410D8B44E
:1025FE0003EF13F005EF13F00DEF13F027502D2618
:10260E0028502E2229502F222A503022271C216E8C
:10261E00281C226E291C236E2A1C246E21502D1676
:10262E0022502E1623502F162450301663EF13F01F
:10263E002DC021F02EC022F02FC023F030C024F088
:10264E00200E2FEF13F0D890243223322232213273
:10265E00E82E2AEF13F02150221023102410D8A4B4
:10266E003BEF13F03DEF13F047EF13F0000E2D6E1E
:10267E00000E2E6E000E2F6E000E306E63EF13F0F6
:10268E00D8902D34216E2E34226E2F34236E30349A
:10269E00246E2150221023102410D8B459EF13F0B9
:1026AE005BEF13F063EF13F0000E2D6E000E2E6E27
:1026BE00800E2F6EBF0E306E2DC01DF02EC01EF080
:1026CE002FC01FF030C020F012000C6E0C50D8B48A
:1026DE0073EF13F075EF13F097EF13F007BE7CEF67
:1026EE0013F07AEF13F097EF13F004C008F005C063
:1026FE0009F006C00AF007C00BF0081E091E0A1EDC
:10270E000B1E082A000E09220A220B2208C00EF008
:10271E0009C00FF00AC010F00BC011F09FEF13F0BC
:10272E0004C00EF005C00FF006C010F007C011F087
:10273E000450051006100710D8A4A8EF13F0AAEF46
:10274E0013F0B4EF13F0000E046E000E056E000EC3
:10275E00066E000E076E45EF14F0960E0D6EBEEF70
:10276E0013F00D2AD890113210320F320E32000EA5
:10277E000E14086E000E0F14096E000E10140A6E61
:10278E00FE0E11140B6E085009100A100B10D8A46F
:10279E00D3EF13F0D5EF13F0B8EF13F0E3EF13F020
:1027AE000D2A010E0E26000E0F2210221122D89095
:1027BE00113210320F320E32000E0E14086E000E51
:1027CE000F14096E000E10140A6EFF0E11140B6E0C
:1027DE00085009100A100B10D8A4F8EF13F0FAEFF6
:1027EE0013F0D7EF13F002EF14F00D06D8900E365B
:1027FE000F361036113610BE07EF14F009EF14F035
:10280E0011EF14F0020E0D600FEF14F011EF14F033
:10281E00FCEF13F00DB016EF14F018EF14F019EFE3
:10282E0014F0109ED8900D320DC008F0096A0A6A95
:10283E000B6A08C00BF00A6A096A086A08500E1281
:10284E0009500F120A5010120B5011120C50D8B41E
:10285E0033EF14F035EF14F03DEF14F007BE3CEFFC
:10286E0014F03AEF14F03DEF14F0118E0EC004F098
:10287E000FC005F010C006F011C007F01200000ED8
:10288E00156E13BE4FEF14F04DEF14F061EF14F010
:10289E00131E121E111E101E0F1E0E1E0D1E0C6C70
:1028AE00000E0D220E220F221022112212221322AE
:1028BE00010E156E0BBE68EF14F066EF14F07AEF92
:1028CE0014F00B1E0A1E091E081E071E061E051EEC
:1028DE00046C000E052206220722082209220A2273
:1028EE000B22010E151A20EE16F0070EDE6AE80610
:1028FE00FDE20C500D100E100F10101011101210D2
:10290E001310D8B48DEF14F08FEF14F0E1EF14F034
:10291E00010E146E9DEF14F0D8900C360D360E3657
:10292E000F361036113612361336142A13AEA2EFA6
:10293E0014F0A4EF14F093EF14F0D8901636173667
:10294E00183619361A361B361C361D360C50045CDA
:10295E000D5005580E5006580F5007581050085875
:10296E001150095812500A5813500B58D8A0C2EFE4
:10297E0014F0C4EF14F0D5EF14F00C50045E0D50AB
:10298E00055A0E50065A0F50075A1050085A115039
:10299E00095A12500A5A13500B5A1680D8901332F5
:1029AE001232113210320F320E320D320C32142E10
:1029BE00A4EF14F01550D8B4E7EF14F0E9EF14F0CB
:1029CE00F9EF14F01D1E1C1E1B1E1A1E191E181EBA
:1029DE00171E166C000E1722182219221A221B22FD
:1029EE001C221D2216C004F017C005F018C006F0F8
:1029FE0019C007F01AC008F01BC009F01CC00AF07D
:102A0E001DC00BF01200000E156E0BBE13EF15F06D
:102A1E0011EF15F025EF15F00B1E0A1E091E081EEC
:102A2E00071E061E051E046C000E05220622072236
:102A3E00082209220A220B22010E156E13BE2CEF5C
:102A4E0015F02AEF15F03CEF15F0131E121E111E95
:102A5E00101E0F1E0E1E0D1E0C6C000E0D220E22D1
:102A6E000F2210221122122213220C500D100E10C2
:102A7E000F101010111012101310D8B449EF15F0DA
:102A8E004BEF15F093EF15F0010E146E59EF15F094
:102A9E00D8900C360D360E360F36103611361236DD
:102AAE001336142A13AE5EEF15F060EF15F04FEFEC
:102ABE0015F00C50045C0D5005580E5006580F5072
:102ACE000758105008581150095812500A581350F0
:102ADE000B58D8A075EF15F077EF15F087EF15F0BE
:102AEE000C50045E0D50055A0E50065A0F50075AE0
:102AFE001050085A1150095A12500A5A13500B5AB4
:102B0E00D89013321232113210320F320E320D3281
:102B1E000C32142E60EF15F01550D8B499EF15F055
:102B2E009BEF15F0ABEF15F00B1E0A1E091E081ECB
:102B3E00071E061E051E046C000E05220622072225
:102B4E00082209220A220B2204C004F005C005F057
:102B5E0006C006F007C007F008C008F009C009F06B
:102B6E000AC00AF00BC00BF01200000E126E000E1F
:102B7E00116E000E106E000E0F6EC8EF15F00A4AA1
:102B8E000B2A0AC0F6FF0BC0F7FF0800F550200A0B
:102B9E00D8B4D4EF15F0D6EF15F0C6EF15F00AC085
:102BAE00F6FF0BC0F7FF0800F5CF0CF0F70E0C2464
:102BBE000D6E0E6AFF0E0E220E5009E1050E0D5C13
:102BCE00D8A0ECEF15F0EEEF15F0C6EF15F0F8EF1C
:102BDE0015F0000E106E010E0F6E0A4A0B2A2DEF25
:102BEE0016F00AC0F6FF0BC0F7FF0800F5500C6E8A
:102BFE000D6A0D50000AD8B407EF16F02DEF16F03F
:102C0E000C502B0AD8B4F4EF15F0060AD8B4F0EF36
:102C1E0015F02DEF16F011C004F012C005F0000EE5
:102C2E00076E0A0E066E73EC1BF00AC0F6FF0BC0A1
:102C3E00F7FF0800F550045E000E055A300E04240E
:102C4E00116E000E0520126EF4EF15F00AC0F6FF9D
:102C5E000BC0F7FF0800F5CF0CF0D00E0C240D6E54
:102C6E000E6AFF0E0E220E5009E10A0E0D5CD8A060
:102C7E0043EF16F045EF16F012EF16F00F5010104E
:102C8E00D8A44CEF16F04EEF16F05CEF16F011C014
:102C9E000CF012C00DF00C1E0D1E0C4A0D2A0CC0AD
:102CAE000AF00DC00BF060EF16F011C00AF012C062
:102CBE000BF01200063407340D6E0D50D8A46AEFD7
:102CCE0016F06CEF16F076EF16F0000E046E000E96
:102CDE00056E000E066E000E076EE3EF16F004C0D2
:102CEE0008F005C009F006C00AF007C00BF0200E70
:102CFE0086EF16F0D8900B320A3209320832E82EDF
:102D0E0081EF16F008500C6E068EFF0E0416FF0EA5
:102D1E000516FF0E0616000E0716960E0D5E0DBE5C
:102D2E009DEF16F09BEF16F0B3EF16F00D50800AE4
:102D3E00970FD8B0A5EF16F0A7EF16F0A9EF16F083
:102D4E006CEF16F0D89007320632053204320D3E83
:102D5E00A9EF16F0CBEF16F01F0E0D64B9EF16F0BB
:102D6E00BBEF16F0C3EF16F06CEF16F0D8900436EA
:102D7E000536063607360D060D50D8A4C9EF16F0E7
:102D8E00CBEF16F0BDEF16F00C50D8B4D1EF16F015
:102D9E00D3EF16F0DBEF16F0071E061E051E046CB1
:102DAE00000E05220622072204C004F005C005F01D
:102DBE0006C006F007C007F01200000E2B14336E8B
:102DCE00000E2C14346E800E2D14356E7F0E2E14C4
:102DDE00366E3350341035103610D8A4F9EF16F085
:102DEE00FBEF16F003EF17F0000E2B6E000E2C6E9D
:102DFE00000E2D6E000E2E6E000E2F14336E000E72
:102E0E003014346E800E3114356E7F0E3214366EE1
:102E1E003350341035103610D8A418EF17F01AEFBF
:102E2E0017F022EF17F0000E2F6E000E306E000E10
:102E3E00316E000E326E2EAE27EF17F029EF17F01F
:102E4E0032EF17F02B6C2C1ED8B02C2A2D1ED8B0BA
:102E5E002D2A800E2E5632AE37EF17F039EF17F0BF
:102E6E0042EF17F02F6C301ED8B0302A311ED8B07A
:102E7E00312A800E3256000E2B1A000E2C1A000E1E
:102E8E002D1A800E2E1A000E2F1A000E301A000E5A
:102E9E00311A800E321A2F502B5C30502C58315074
:102EAE002D5832502E58D8B05FEF17F061EF17F053
:102EBE0064EF17F0D89065EF17F0D88012008CC031
:102ECE000EF08DC00FF08EC010F08FC011F004C048
:102EDE000EF005C00FF006C010F007C011F00EC0C6
:102EEE0008F00FC009F010C00AF011C00BF0180E58
:102EFE0086EF17F0D8900B320A3209320832E82EDC
:102F0E0081EF17F008500C6E0D6A0C500D10D8A4FE
:102F1E0093EF17F095EF17F0B5EF17F0D8900E343A
:102F2E00086E0F34096E10340A6E11340B6E085091
:102F3E0009100A100B10D8A4A7EF17F0A9EF17F07D
:102F4E00AFEF17F0000E056E020E046EE4EF17F0F1
:102F5E00000E056E030E046EE4EF17F00C280D1034
:102F6E00D8A4BCEF17F0BEEF17F0E0EF17F00EC0CD
:102F7E0008F00FC009F010C00AF011C00BF0090ED6
:102F8E00D890083609360A360B36E82EC7EF17F0FA
:102F9E00085009100A100B10D8B4D8EF17F0DBEF59
:102FAE0017F0010EDCEF17F0000E046E056AE4EF69
:102FBE0017F0000E056E040E046E12000650071078
:102FCE00D8B4ECEF17F0EEEF17F0F7EF17F006505E
:102FDE000710D8A4F5EF17F0F7EF17F0FCEF17F086
:102FEE000450CBEC1BF049EF18F020EE09F0065020
:102FFE00D9260750DA22DE50DE10D8B409EF18F0C9
:10300E000BEF18F026EF18F020EE09F00650D92637
:10301E000750DA2210EE03F00650E1260750E222A6
:10302E00DE50E65CE650800A0C6EDE50800A0C58CC
:10303E00D8B024EF18F026EF18F049EF18F020EE74
:10304E0003F00650D9260750DA22DECF08F0DDCF86
:10305E0009F006C0D9FF07C0DAFFDECF0AF0DDCFD8
:10306E000BF008500A24D96E09500B20DA6E04C0FA
:10307E00DFFF20EE03F00650D9260750DA22DE2AB3
:10308E00000EDD2212000600D9CF02F0DACF03F0D7
:10309E009EAA54EF18F056EF18F0A0EF18F0800E1D
:1030AE007A24D96EDA6A000EDA22ACEC1BF0DF6EEF
:1030BE00800E7A24D96EDA6A000EDA220D0EDE1830
:1030CE00D8A46CEF18F06EEF18F09FEF18F0310ED9
:1030DE0000018019D8A476EF18F078EF18F07BEF86
:1030EE0018F0838085EF18F0300E8019D8A482EF87
:1030FE0018F084EF18F085EF18F08390310E8119D7
:10310E00D8A48CEF18F08EEF18F091EF18F08382A0
:10311E009BEF18F0300E8119D8A498EF18F09AEFA3
:10312E0018F09BEF18F08392000E7A6EA0EF18F055
:10313E007A2A9E9A03C0DAFF02C0D9FF7B92110051
:10314E00000E04140C6E000E05140D6E800E061487
:10315E000E6E7F0E07140F6E0C500D100E100F100A
:10316E00D8A4BCEF18F0BEEF18F0C6EF18F0000EA2
:10317E00046E000E056E000E066E000E076E000E3B
:10318E0008140C6E000E09140D6E800E0A140E6ECD
:10319E007F0E0B140F6E0C500D100E100F10D8A4C6
:1031AE00DBEF18F0DDEF18F0E5EF18F0000E086E0B
:1031BE00000E096E000E0A6E000E0B6E08500418FB
:1031CE000FE1095005180CE10A50061809E10B50E1
:1031DE000718D8B4F5EF18F0F7EF18F0FAEF18F06B
:1031EE00D890FBEF18F0D880120079A001EF19F0FB
:1031FE0003EF19F00DEF19F016C00DF017C00EF019
:10320E0014C00FF015C010F0B0EC1AF019BE12EF8A
:10321E0019F014EF19F01AEF19F018C01DF019C0BB
:10322E001EF01EEF19F0000E1E6E000E1D6E000E2B
:10323E001C6E000E1B6E30EF19F0000E056E200E88
:10324E00046E14C006F015C007F0E5EC17F01B4A2B
:10325E001C2A1D501B5C1C50800A1A6E1E50800AC0
:10326E001A58D8A03DEF19F03FEF19F024EF19F0DE
:10327E0079B044EF19F046EF19F050EF19F016C07F
:10328E000DF017C00EF014C00FF015C010F0B0EC1A
:10329E001AF01200030E2C6E080E2B6E770EE82E0F
:1032AE00FED72B2EFCD72C2EFAD700F0C282C2B23C
:1032BE0063EF19F065EF19F05EEF19F0C4CF96F0D9
:1032CE000001976B96512B6EC350966F2BC097F0E3
:1032DE0096C004F097C005F0066A076A000E6CEC03
:1032EE0013F004C012F005C013F006C014F007C0AE
:1032FE0015F04B0E166E3C0E176EA00E186E3B0E92
:10330E00196E27EC0DF012C090F013C091F014C09E
:10331E0092F015C093F0120007BEA2EF19F00750FD
:10332E000610051006E10404D8B0A0EF19F0A2EFC4
:10333E0019F0BDEF19F004C008F005C009F006C081
:10334E000AF007C00BF0081E091E0A1E0B1E082AE3
:10335E00000E09220A220B2208C004F009C005F053
:10336E000AC006F00BC007F0C5EF19F004C004F058
:10337E0005C005F006C006F007C007F01200980E53
:10338E000001CB6F000ECC6F010ECD6F060ECE6F0F
:10339E0096C0CFF097C0D0F090C0D1F091C0D2F0CF
:1033AE0092C0D3F093C0D4F0F1EC19F0980E056EE4
:1033BE00000E066E2EEC1BF0020E0001E36F040EE3
:1033CE00E26FBA0EE82EFED7E22FFCD7E32FFAD724
:1033DE0000F01200CF0E0001D56F000ED66FCBC0DD
:1033EE00D7F0CCC0D8F0000EDB6F000EDA6F000EF7
:1033FE00E16F000EE06FD70EC56F000EC66FCDC029
:10340E00C7F0CEC0C8F0D50EC96F000ECA6F1AEC49
:10341E001AF00001DA51CB25D96EDB51CC21DA6ED0
:10342E00000EDF6E1200C7C075F0C8C076F02EEF2A
:10343E001AF0C5C06CF0C6C06DF0750E6E6E000E43
:10344E006F6EC9C070F0CAC071F02CEC08F075C078
:10345E00F6FF76C0F7FF0800F5500009D8A43AEF42
:10346E001AF03CEF1AF020EF1AF0000E0001C66FB2
:10347E00000EC56F120006C00DF007C00EF004C09E
:10348E000BF005C00CF05CEF1AF00DC0D9FF0EC0AA
:10349E00DAFFDF500A6E0D4A0E2A0BC0D9FF0CC0A0
:1034AE00DAFF0AC0DFFF0B4A0C2A0806D8A009066D
:1034BE00082806E10928D8A467EF1AF069EF1AF078
:1034CE004CEF1AF01200000E2F1A000E301A000EDA
:1034DE00311A800E321A2BC004F02CC005F02DC00C
:1034EE0006F02EC007F02FC008F030C009F031C032
:1034FE000AF032C00BF0C7EC0AF004C02BF005C086
:10350E002CF006C02DF007C02EF01200010E086E32
:10351E00200E04180510D8B497EF1AF099EF1AF090
:10352E00ACEF1AF0F70E0424066EFF0E0520076EA0
:10353E00075009E1050E065CD8A0A8EF1AF0AAEF15
:10354E001AF0ACEF1AF0000E086E08C004F0056A0F
:10355E001200000E136E000E126EC1EF1AF011C0A3
:10356E0004F0056A0FC006F010C007F0E5EC17F086
:10357E00124A132A12500D24D96E13500E20DA6EF1
:10358E00DF50116E1150D8A4CFEF1AF0D1EF1AF010
:10359E00B6EF1AF0120006C008F007C009F004C01A
:1035AE000AF005C00BF008C0F6FF09C0F7FF084A85
:1035BE00092A0AC0D9FF0BC0DAFF0A4A0B2A0800F3
:1035CE00F5CFDFFFDF50D8A4EFEF1AF0F1EF1AF0CE
:1035DE00DAEF1AF0120017BEFFEF1AF0175006E1DD
:1035EE001604D8B0FDEF1AF0FFEF1AF00DEF1BF036
:1035FE0016C018F017C019F0181E191E184A192AED
:10360E0018C016F019C017F011EF1BF016C016F007
:10361E0017C017F012000450051006100710D8B48A
:10362E001BEF1BF01DEF1BF025EF1BF0000E041A15
:10363E00000E051A000E061A800E071A04C004F0BA
:10364E0005C005F006C006F007C007F0120039EFFE
:10365E001BF005C0D9FF06C0DAFFDF5098EC1BF057
:10366E00054A062A05C0D9FF06C0DAFFDF50D8A4E6
:10367E0043EF1BF045EF1BF030EF1BF0120001EE95
:10368E0000F0500EEE6AE806FDE100EE80F0380E16
:10369E00EE6AE806FDE17A6A796A786A776A7B9063
:1036AE007B92000EF86E000186EF1BF0D00E042404
:1036BE00066EFF0E0520076E07500AE10A0E065C25
:1036CE00D8A06CEF1BF06FEF1BF0010E70EF1BF02C
:1036DE00000E046E056A120004500602F3CF08F0C5
:1036EE00F4CF09F004500702F350092605500602E4
:1036FE00F350092608C004F009C005F01200C6EC0C
:10370E001BF0C1EC1BF0B5EC1BF0BCEC1BF0A3ECFA
:10371E001BF051EC19F0C6EC19F090EF1BF007EF0F
:10372E0000F0046EACA29EEF1BF0A0EF1BF099EF21
:10373E001BF004C0ADFF1200AC8AAB88AC98AB8E08
:10374E00AC94B8960C0EAF6E12009EAAB1EF1BF0A1
:10375E00B3EF1BF0ACEF1BF0AE501200010EC26EB9
:10376E000E0EC16E870EC06E1200C00EF26E200ECF
:10377E009D6E1200000E956E000E836E1200000EEE
:0A378E00D36E000E9B6E12001200B5
:020000040020DA
:08000000FFFFFFFFFFFFFFFF00
:020000040030CA
:0E000000FF021F1EFF8181FF0FC00FE00F40A7
:00000001FF
