:040000006EEF03F0AC
:05060000000D0A0000DE
:1006060075EC03F07AEC03F065EC03F0500E5AEC4F
:1006160003F0490E5AEC03F0430E5AEC03F0200E99
:100626005AEC03F0310E5AEC03F0380E5AEC03F094
:10063600460E5AEC03F0340E5AEC03F0350E5AEC23
:1006460003F0320E5AEC03F0300E5AEC03F0010EB2
:10065600026E060E036E3FEC03F0060E056E130ED9
:10066600046EAE0EE82EFED7042EFCD7052EFAD762
:1006760009EF03F000EF00F04BEF03F002C0F6FFC6
:1006860003C0F7FF0800F5505AEC03F0024A032AAC
:1006960002C0F6FF03C0F7FF0800F5500009D8A412
:1006A60057EF03F059EF03F041EF03F01200016E2C
:1006B600ACA260EF03F062EF03F05BEF03F001C062
:1006C600ADFF1200AC8AAB88AC98AB8EAC94B896F2
:1006D6000C0EAF6E1200000EF86E060EF76E0001DD
:1006E60003EF03F0000ED36E000E9B6E12000F0E8A
:0406F600C16E1200BF
:020000040020DA
:08000000FFFFFFFFFFFFFFFF00
:020000040030CA
:0E000000FF02191EFF8181FF0FC00FE00F40AD
:00000001FF
