:04000000BEEF3FF020
:107F3E000F0EC16E1200000ED36E000E9B6E12005D
:107F4E00C00EF26E000E9D6E1200AC8AAB88AC981D
:107F5E00AB8EAC94B8960C0EAF6E12009EAABAEF12
:107F6E003FF0BCEF3FF0B5EF3FF0AE50120000EE29
:107F7E0080F0800EEE6AE806FDE10001D2EF3FF0E0
:107F8E00016EACA2CDEF3FF0CFEF3FF0C8EF3FF068
:107F9E0001C0ADFF1200A2EC3FF09FEC3FF0A7EC4A
:107FAE003FF0ACEC3FF0B5EC3FF00001806F800E7F
:107FBE00026E000E036EE8EC3FF0DAEF3FF000EFDA
:107FCE0000F0F3EF3FF002C0D9FF03C0DAFFDF503D
:107FDE00C7EC3FF0024A032A02C0D9FF03C0DAFF02
:107FEE00DF50D8A4FDEF3FF0FFEF3FF0EAEF3FF098
:027FFE0012006F
:020000040020DA
:08000000FFFFFFFFFFFFFFFF00
:020000040030CA
:0E000000FF02191EFF8181FF0FC00FE00F40AD
:00000001FF
