:0400000019EF1BF0E9
:10060000003C444154413A41443A253034642C562C
:100610006F6C746167653A252E3266563E0D0A008E
:09062000696E66006E616E000057
:10062A00000E5E6E36C05FF037C060F038C061F011
:10063A0039C062F062BE26EF03F024EF03F03AEF0E
:10064A0003F0010E5E6E5FC001F060C002F061C08F
:10065A0003F062C004F0BCEC1AF001C05FF002C003
:10066A0060F003C061F004C062F0000E646E000E18
:10067A00636E8CC04EF08DC04FF05E50D8B448EF18
:10068A0003F04AEF03F05EEF03F05E50D8A450EF98
:10069A0003F052EF03F058EF03F0000E446E2B0EF6
:1006AA00436E5CEF03F0000E446E2D0E436E43C0A2
:1006BA005EF05FC001F060C002F061C003F062C08A
:1006CA0004F06EEC17F001040210D8A46FEF03F0E7
:1006DA0071EF03F0A2EF03F05E50D8B477EF03F0A6
:1006EA0079EF03F082EF03F05EC000F14E06D8A066
:1006FA004F06000E646E010E636E000E6324016ED7
:10070A00010E6420026E200E036E060E046E7CEC4F
:10071A001AF0FD0E4E26FF0E4F2234C011F035C0DE
:10072A0012F0000E136E010E146E4EC015F04FC07B
:10073A0016F0A7EC18F032EF08F05FC001F060C0C5
:10074A0002F061C003F062C004F06EEC17F00150D1
:10075A000210D8A4B3EF03F0B5EF03F0D4EF03F01F
:10076A005E50D8B4BBEF03F0BDEF03F0C6EF03F061
:10077A005EC000F14E06D8A04F06000E646E010E50
:10078A00636E000E6324016E010E6420026E240E55
:10079A00036E060E046E7CEC1AF08EEF03F0000E68
:1007AA00656E000E666E800E676E3F0E686E000EF6
:1007BA004D6E000E4C6E5FC001F060C002F061C069
:1007CA0003F062C004F0000E056E000E066E000E05
:1007DA00076E000E086E52EC18F0D8B0F7EF03F06F
:1007EA00F9EF03F0D4EF04F005EF04F050C065F020
:1007FA0051C066F052C067F053C068F04C4A4D2AA7
:10080A0065C00FF066C010F067C011F068C012F042
:10081A00000E136E000E146E200E156E410E166E2B
:10082A002EEC0DF00FC050F010C051F011C052F074
:10083A0012C053F050505F5C016E51506058026E06
:10084A0052506158036E53506258046E3EEC19F0D0
:10085A0004BE3BEF04F004500310021009E1020E3B
:10086A00015CD8A03BEF04F03DEF04F0FBEF03F08E
:10087A0050C028F051C029F052C02AF053C02BF0C2
:10088A005FC02CF060C02DF061C02EF062C02FF066
:10089A00ECEC16F0D8A054EF04F056EF04F0FBEF9E
:1008AA0003F065505F5C016E66506058026E6750D7
:1008BA006158036E68506258046E3EEC19F004BE2B
:1008CA0074EF04F004500310021007E1020E015CF9
:1008DA00D8B072EF04F074EF04F0BBEF04F065C017
:1008EA005FF066C060F067C061F068C062F0D4EF84
:1008FA0004F065C001F066C002F067C003F068C08A
:10090A0004F0000E056E000E066E200E076E410EF4
:10091A00086E43EC0FF001C065F002C066F003C038
:10092A0067F004C068F04C06D8A04D0665505F5CBD
:10093A00016E66506058026E67506158036E6850C7
:10094A006258046E3EEC19F004BEB9EF04F004508C
:10095A000310021007E1020E015CD8B0B7EF04F0F1
:10096A00B9EF04F0BBEF04F074EF04F05FC028F0B5
:10097A0060C029F061C02AF062C02BF065C02CF07B
:10098A0066C02DF067C02EF068C02FF0ECEC16F0B0
:10099A00D8A0D2EF04F0D4EF04F07EEF04F03AC00E
:1009AA0046F046C047F000018FBFDEEF04F0E0EFEB
:1009BA0004F0E6EF04F08EC03FF08FC040F0EAEF9B
:1009CA0004F0000E406E060E3F6E3FC04AF040C073
:1009DA004BF04A4A4B2A660E4718D8A4F7EF04F0A0
:1009EA00F9EF04F019EF05F04DBE00EF05F0FEEF48
:1009FA0004F00CEF05F0000E656E000E666E800EB8
:100A0A00676E3F0E686E000E4D6E000E4C6E670EDE
:100A1A004618D8B413EF05F015EF05F019EF05F0F5
:100A2A004C504A264D504B22000E5D6E000E5C6EF5
:100A3A005FC054F060C055F061C056F062C057F014
:100A4A0065C050F066C051F067C052F068C053F0FC
:100A5A00A9EF05F054C001F055C002F056C003F0EA
:100A6A0057C004F065C005F066C006F067C007F01D
:100A7A0068C008F043EC0FF001C01AF002C01BF086
:100A8A0003C01CF004C01DF06BEC12F01AC058F041
:100A9A001BC059F01CC05AF01DC05BF058C001F0D1
:100AAA0059C002F05AC003F05BC004F069EC16F0BA
:100ABA0001C048F002C049F054C028F055C029F0DE
:100ACA0056C02AF057C02BF058C013F059C014F082
:100ADA005AC015F05BC016F065C00FF066C010F082
:100AEA0067C011F068C012F02EEC0DF00FC02CF0A8
:100AFA0010C02DF011C02EF012C02FF014EC1AF015
:100B0A0028C054F029C055F02AC056F02BC057F01F
:100B1A0065C001F066C002F067C003F068C004F067
:100B2A00000E056E000E066E200E076E410E086E50
:100B3A0043EC0FF001C065F002C066F003C067F035
:100B4A0004C068F05C4A5D2A4A505C5C5D50800AC9
:100B5A003B6E4B50800A3B58D8A0B6EF05F0B8EF71
:100B6A0005F02FEF05F065C00FF066C010F067C002
:100B7A0011F068C012F0000E136E000E146EA00E73
:100B8A00156E400E166E2EEC0DF00FC058F010C008
:100B9A0059F011C05AF012C05BF054C028F055C089
:100BAA0029F056C02AF057C02BF058C02CF059C073
:100BBA002DF05AC02EF05BC02FF0ECEC16F0D8B036
:100BCA00E9EF05F0EBEF05F0F5EF05F0000E586ED2
:100BDA00000E596E000E5A6E000E5B6E1DEF06F087
:100BEA0054C001F055C002F056C003F057C004F0DB
:100BFA0058C005F059C006F05AC007F05BC008F0AB
:100C0A0052EC18F0D8A00CEF06F00EEF06F01DEF2C
:100C1A0006F048B013EF06F015EF06F01DEF06F0E8
:100C2A00000E586E000E596E000E5A6E000E5B6E64
:100C3A005FC001F060C002F061C003F062C004F05E
:100C4A0058C005F059C006F05AC007F05BC008F05A
:100C5A00CEEC0AF001C054F002C055F003C056F0C1
:100C6A0004C057F054C028F055C029F056C02AF0E5
:100C7A0057C02BF0000E136E000E146E200E156E68
:100C8A00410E166E50C00FF051C010F052C011F054
:100C9A0053C012F02EEC0DF00FC02CF010C02DF046
:100CAA0011C02EF012C02FF0ECEC16F0D8A060EFB5
:100CBA0006F062EF06F089EF06F04C4A4D2A50C062
:100CCA000FF051C010F052C011F053C012F0000ED4
:100CDA00136E000E146E200E156E410E166E2EEC5B
:100CEA000DF00FC050F010C051F011C052F012C0F8
:100CFA0053F0660E4718D8A485EF06F087EF06F082
:100D0A0089EF06F04A4A4B2A50C065F051C066F096
:100D1A0052C067F053C068F04CC03DF04DC03EF081
:100D2A00000E456E000E426E000E416E000E5D6EA4
:100D3A00000E5C6E83EF07F054C001F055C002F05C
:100D4A0056C003F057C004F065C005F066C006F04F
:100D5A0067C007F068C008F043EC0FF001C01AF052
:100D6A0002C01BF003C01CF004C01DF06BEC12F0B3
:100D7A001AC058F01BC059F01CC05AF01DC05BF0D5
:100D8A0058C001F059C002F05AC003F05BC004F029
:100D9A0069EC16F002BEDDEF06F0025007E10A0E1A
:100DAA00015CD8B0DBEF06F0DDEF06F0EDEF06F000
:100DBA0058C001F059C002F05AC003F05BC004F0F9
:100DCA0069EC16F001C048F002C049F0F1EF06F0F4
:100DDA00000E496E090E486E4550D8A4F7EF06F08A
:100DEA00F9EF06F021EF07F03EBE00EF07F0FEEF45
:100DFA0006F021EF07F0000E6324D96E010E64207D
:100E0A00DA6E2E0EDF6E634A642A4E06D8A04F06AB
:100E1A00010E456E21EF07F0000E6324D96E010E14
:100E2A006420DA6E300EDF6E634A642A4E06D8A05A
:100E3A004F064106D8A0420641504210D8A428EFD6
:100E4A0007F02AEF07F011EF07F0000E6324D96EBE
:100E5A00010E6420DA6E4850300FDF6E634A642A4E
:100E6A004E06D8A04F0654C028F055C029F056C0E7
:100E7A002AF057C02BF058C013F059C014F05AC0CA
:100E8A0015F05BC016F065C00FF066C010F067C0C1
:100E9A0011F068C012F02EEC0DF00FC02CF010C04B
:100EAA002DF011C02EF012C02FF014EC1AF028C049
:100EBA0054F029C055F02AC056F02BC057F065C02F
:100ECA0001F066C002F067C003F068C004F0000ECB
:100EDA00056E000E066E200E076E410E086E43EC7C
:100EEA000FF001C065F002C066F003C067F004C0ED
:100EFA0068F03D06D8A03E065C4A5D2A4A505C5C12
:100F0A005D50800A3B6E4B50800A3B58D8B090EF38
:100F1A0007F092EF07F0A0EF07F064BE9EEF07F02C
:100F2A00645009E14B0E635CD8A09EEF07F0A0EF76
:100F3A0007F0A1EF06F0000E5D6E4F0E5C6E000E1C
:100F4A005C24D96E010E5D20DA6E000EDF6E000E93
:100F5A003B6E010E3C6E63503B5E64503C5A5C50E3
:100F6A003B24016E5D503C20026E000E036E010EA2
:100F7A00046E63C005F064C006F0ECEC19F063502F
:100F8A005C5C636E64505D58646E5E50D8A4D0EFAA
:100F9A0007F0D3EF07F0010ED4EF07F0000E5C6EF6
:100FAA005D6A7FA2DBEF07F0DDEF07F00BEF08F0D9
:100FBA00EDEF07F06306D8A06406000E6324D96E2D
:100FCA00010E6420DA6E300EDF6E4E06D8A04F0690
:100FDA004E505C5C5D50800A3B6E4F50800A3B5815
:100FEA00D8B0FAEF07F0FCEF07F00BEF08F0635008
:100FFA005C5C5D50800A3B6E6450800A3B58D8A006
:10100A0009EF08F00BEF08F0DFEF07F05E50D8B4F5
:10101A0011EF08F013EF08F01EEF08F06306D8A0EE
:10102A006406000E6324D96E010E6420DA6E5EC077
:10103A00DFFF5C504E5E5D504F5A34C011F035C030
:10104A0012F0000E6324136E010E6420146E4EC05B
:10105A0015F04FC016F0A7EC18F012006BC0D9FFBC
:10106A006CC0DAFFDECFF6FFDDCFF7FF0800F550E0
:10107A00250AD8A443EF08F045EF08F0B9EF0AF0C3
:10108A006BC0D9FF6CC0DAFFDE2A000EDD22000E2B
:10109A0000018D6F000E8C6F8CC07FF08E698F6996
:1010AA00000E736E000E726E85EF08F07F826BC0C1
:1010BA00D9FF6CC0DAFFDE2A000EDD2285EF08F0C8
:1010CA00000E736E010E726E85EF08F06BC0D9FFC9
:1010DA006CC0DAFFDECFF6FFDDCFF7FF0800F55070
:1010EA006F6E706A7050000AD8B47EEF08F065EF30
:1010FA0008F06F50300AD8B45BEF08F065EF08F0DB
:10110A0072507310D8B48CEF08F08EEF08F06BEFC2
:10111A0008F06BC0D9FF6CC0DAFFDECFF6FFDDCF77
:10112A00F7FF0800F5502A0AD8A49EEF08F0A0EFAE
:10113A0008F0CAEF08F06BC0D9FF6CC0DAFFDE2AEC
:10114A00000EDD226DC0D9FF6EC0DAFFDFCF6FF06F
:10115A00020EDE26DFCF70F0000EDD226FC0D9FF4F
:10116A0070C0DAFFDECF8CF0DDCF8DF000018DBFCD
:10117A00C3EF08F0C1EF08F0FDEF08F07F808C6D37
:10118A008D1FD8B08D2BFDEF08F06BC0D9FF6CC056
:10119A00DAFFDECF07F0DDCF08F0C4EC15F007C0A8
:1011AA008CF008C08DF0E1EF08F06BC0D9FF6CC07D
:1011BA00DAFFDE2A000EDD226BC0D9FF6CC0DAFF2F
:1011CA00DECFF6FFDDCFF7FF0800F5CF6FF0D00EC8
:1011DA006F24706E716AFF0E7122715009E10A0E56
:1011EA00705CD8A0FBEF08F0FDEF08F0DAEF08F02A
:1011FA006BC0D9FF6CC0DAFFDECFF6FFDDCFF7FF99
:10120A000800F5502E0AD8A40DEF09F00FEF09F0E7
:10121A007DEF09F0000E00018F6F000E8E6F6BC01C
:10122A00D9FF6CC0DAFFDE2A000EDD226BC0D9FFBF
:10123A006CC0DAFFDECFF6FFDDCFF7FF0800F5500E
:10124A002A0AD8A42BEF09F02DEF09F04AEF09F08A
:10125A006BC0D9FF6CC0DAFFDE2A000EDD226DC03A
:10126A00D9FF6EC0DAFFDFCF6FF0020EDE26DFCFC6
:10127A0070F0000EDD226FC0D9FF70C0DAFFDECF3A
:10128A008EF0DDCF8FF07DEF09F06BC0D9FF6CC017
:10129A00DAFFDECF07F0DDCF08F0C4EC15F007C0A7
:1012AA008EF008C08FF061EF09F06BC0D9FF6CC0F7
:1012BA00DAFFDE2A000EDD226BC0D9FF6CC0DAFF2E
:1012CA00DECFF6FFDDCFF7FF0800F5CF6FF0D00EC7
:1012DA006F24706E716AFF0E7122715009E10A0E55
:1012EA00705CD8A07BEF09F07DEF09F05AEF09F0A6
:1012FA006BC0D9FF6CC0DAFFDECF7DF0DDCF7EF0A8
:10130A007DC0F6FF7EC0F7FF0800F550640AD8B426
:10131A0091EF09F093EF09F0A1EF09F07DC0F6FF14
:10132A007EC0F7FF0800F550690AD8A49FEF09F0BC
:10133A00A1EF09F0E4EF09F06DC0D9FF6EC0DAFF42
:10134A00DFCF6FF0020EDE26DFCF70F0000EDD2257
:10135A006FC0D9FF70C0DAFFDECF74F0DDCF75F051
:10136A00000E75BEFF0E766E776E786E796E7A6EA7
:10137A007B6E010E7D246F6E000E7E20706E6BC038
:10138A00D9FF6CC0DAFF6FC0DEFF70C0DDFF69C035
:10139A001CF06AC01DF074C01EF075C01FF076C044
:1013AA0020F077C021F078C022F079C023F07AC00B
:1013BA0024F07BC025F010EC11F0CDEF0AF06BC0E1
:1013CA00D9FF6CC0DAFFDECF7DF0DDCF7EF07DC0C5
:1013DA00F6FF7EC0F7FF0800F5CF7CF001EF0AF0B8
:1013EA007D4A7E2A1AEF0AF06C0E7C6E1AEF0AF01A
:1013FA00000E7C6E1AEF0AF07C506F6E706A7050A5
:10140A00000AD8B40BEF0AF0FDEF09F06F504C0A4E
:10141A00D8B4F5EF09F02A0AD8B4F9EF09F00A0AA4
:10142A00D8B4F5EF09F0FDEF09F07DC0F6FF7EC0F4
:10143A00F7FF0800F550660AD8A426EF0AF028EF4D
:10144A000AF0B0EF0AF05EEF0AF06DC0D9FF6EC085
:10145A00DAFFDFCF6FF0040EDE26DFCF70F0000E6A
:10146A00DD226FC0D9FF70C0DAFFDECF74F0DECFA5
:10147A0075F0DECF76F0DECF77F073EF0AF06DC04D
:10148A00D9FF6EC0DAFFDFCF6FF0040EDE26DFCFA2
:10149A0070F0000EDD226FC0D9FF70C0DAFFDECF18
:1014AA0074F0DECF75F0DECF76F0DECF77F073EF33
:1014BA000AF07C506F6E706A7050000AD8B468EFF8
:1014CA000AF073EF0AF06F504C0AD8B444EF0AF0EE
:1014DA00200AD8B42AEF0AF073EF0AF0010E7D242D
:1014EA006F6E000E7E20706E6BC0D9FF6CC0DAFF83
:1014FA006FC0DEFF70C0DDFF9AEF0AF069C034F0FA
:10150A006AC035F074C036F075C037F076C038F06E
:10151A0077C039F07DC0F6FF7EC0F7FF0800F5CF2F
:10152A003AF015EC03F0CDEF0AF07DC0F6FF7EC06D
:10153A00F7FF0800F5506F6E706A7050000AD8B451
:10154A00A9EF0AF0B0EF0AF06F50660AD8B483EF39
:10155A000AF0B0EF0AF06BC0D9FF6CC0DAFFDE2ADE
:10156A00000EDD22CDEF0AF06BC0D9FF6CC0DAFFA6
:10157A00DECFF6FFDDCFF7FF0800F550016E026AF5
:10158A0069C003F06AC004F0EDEC17F0B0EF0AF09E
:10159A0012000450800B0D6E045004240F6E03AE2B
:1015AA00D9EF0AF0DBEF0AF0DCEF0AF00F800F50F8
:1015BA00D8B4E2EF0AF0E4EF0AF0F9EF0AF00F28E4
:1015CA00D8A4EAEF0AF0ECEF0AF0F4EF0AF0000E02
:1015DA00016E000E026E000E036E000E046E038E84
:1015EA00000E046E01EF0BF0000E016E000E026E8B
:1015FA00000E036E000E046E0850800B0E6E0D5026
:10160A000E18D8B40BEF0BF00DEF0BF00EEF0BF03A
:10161A000D8C085008240E6E07AE16EF0BF018EF6B
:10162A000BF019EF0BF00E800E50D8B41FEF0BF031
:10163A0021EF0BF036EF0BF00E28D8A427EF0BF0B2
:10164A0029EF0BF031EF0BF0000E056E000E066E5F
:10165A00000E076E000E086E078E000E086E3EEF33
:10166A000BF0000E056E000E066E000E076E000EE1
:10167A00086E0F500E5CD8B045EF0BF047EF0BF039
:10168A006EEF0BF00DAC4CEF0BF04EEF0BF050EF92
:10169A000BF0800E0D1A0FC010F00EC00FF010C024
:1016AA000EF001C010F005C001F010C005F002C034
:1016BA0010F006C002F010C006F003C010F007C018
:1016CA0003F010C007F004C010F008C004F010C006
:1016DA0008F0000E106E0F500EC009F00A6A095E7B
:1016EA00000E0A5A0ABE83EF0BF00A5009E11A0EDD
:1016FA00095CD8A083EF0BF085EF0BF0BCEF0BF081
:10170A000150021003100410D8A48EEF0BF091EFD1
:10171A000BF0010E92EF0BF0000E106E000E016E30
:10172A00000E026E000E036E000E046E0EC00FF065
:10173A00C5EF0BF010A0A4EF0BF0A6EF0BF0ACEF87
:10174A000BF0D89010300109106EAEEF0BF0D89064
:10175A00103201A0B3EF0BF0B5EF0BF0B6EF0BF0C0
:10176A00108E043404320332023201320F2A0E5030
:10177A000F5CD8A0C3EF0BF0C5EF0BF09FEF0BF097
:10178A000DBCCAEF0BF0CCEF0BF00CEF0CF00F50C6
:10179A00D8A4D2EF0BF0D4EF0BF0DEEF0BF0000E73
:1017AA00016E000E026E000E036E000E046E2DEF27
:1017BA000DF0055001260650022207500322085058
:1017CA00042204A0EBEF0BF0EDEF0BF099EF0CF015
:1017DA0010A0F2EF0BF0F4EF0BF0FAEF0BF0D89049
:1017EA0010300109106EFCEF0BF0D890103201A0F6
:1017FA0001EF0CF003EF0CF004EF0CF0108E043440
:10180A0004320332023201320F2A99EF0CF00550EA
:10181A00015C06500258075003580450800A096EAA
:10182A000850800A0958D8B01DEF0CF01FEF0CF0D1
:10183A004AEF0CF00150055C096E025006580A6E18
:10184A00035007580B6E045008580C6EFF0E0924FB
:10185A00016EFF0E0A20026EFF0E0B20036EFF0EB2
:10186A000C20046E800E0D1A106C1050D8A440EF94
:10187A000CF042EF0CF052EF0CF0010E0126000EB4
:10188A0002220322042252EF0CF00550015E065098
:10189A00025A0750035A0850045A01500210031002
:1018AA000410D8A45BEF0CF05DEF0CF092EF0CF093
:1018BA001050D8A463EF0CF065EF0CF092EF0CF027
:1018CA00000E016E000E026E000E036E000E046E14
:1018DA002DEF0DF0D890013602360336043610AEDD
:1018EA0079EF0CF07BEF0CF07CEF0CF0018010A08C
:1018FA0081EF0CF083EF0CF087EF0CF0D8801036F4
:10190A0089EF0CF0D89010360F50D8B48FEF0CF046
:10191A0091EF0CF092EF0CF00F0603AE97EF0CF07C
:10192A0099EF0CF06FEF0CF0000E0E6E10AEA0EFF8
:10193A000CF0A2EF0CF0BAEF0CF010C009F07F0E19
:10194A000916D8B4ABEF0CF0ADEF0CF0B1EF0CF018
:10195A00010E0E6EBAEF0CF001A0B6EF0CF0B8EF64
:10196A000CF0BAEF0CF0ADEF0CF00E50D8B4C0EF9B
:10197A000CF0C2EF0CF0EDEF0CF0010E0126000E98
:10198A0002220322042204A0CDEF0CF0CFEF0CF0C8
:10199A00EDEF0CF001C009F002C00AF003C00BF031
:1019AA0004C00CF00C340C320B320A32093209C072
:1019BA0001F00AC002F00BC003F00CC004F00F28BB
:1019CA00D8B4EAEF0CF0ECEF0CF0EDEF0CF00F2AC4
:1019DA000F28D8B4F3EF0CF0F5EF0CF0FDEF0CF094
:1019EA000F50D8A4FBEF0CF0FDEF0CF00FEF0DF049
:1019FA00000E016E000E026E000E036E000E046EE3
:101A0A000F50D8A40BEF0DF00DEF0DF00FEF0DF006
:101A1A00000E0D6E0FA014EF0DF016EF0DF019EF7A
:101A2A000DF0038E1AEF0DF0039ED8900F30046E5E
:101A3A000DAE22EF0DF024EF0DF025EF0DF0048E20
:101A4A0001C001F002C002F003C003F004C004F0B8
:101A5A0012001250800B1B6E12501224216E11AE0E
:101A6A0039EF0DF03BEF0DF03CEF0DF021802150E6
:101A7A00D8B442EF0DF044EF0DF057EF0DF02128E6
:101A8A00D8A44AEF0DF04CEF0DF054EF0DF0000E14
:101A9A000F6E000E106E000E116E000E126E118E79
:101AAA005FEF0DF0000E0F6E000E106E000E116E3D
:101ABA00000E126E1650800B1B1A16501624206E3A
:101ACA0015AE6AEF0DF06CEF0DF06DEF0DF02080A2
:101ADA002050D8B473EF0DF075EF0DF088EF0DF0CC
:101AEA002028D8A47BEF0DF07DEF0DF085EF0DF0E7
:101AFA00000E136E000E146E000E156E000E166E9A
:101B0A00158E90EF0DF0000E136E000E146E000E7F
:101B1A00156E000E166E2050D8B496EF0DF098EFA1
:101B2A000DF0A0EF0DF02150D8A49EEF0DF0A0EF1C
:101B3A000DF0AAEF0DF0000E0F6E000E106E000EE3
:101B4A00116E000E126E42EF0FF015500F02F3CF16
:101B5A0026F0F4CF27F026501C6E1D6A1E6A1F6AF3
:101B6A002750226E236A246A256A14501002F3CF82
:101B7A0026F0F4CF27F026501C26000E1D221E2226
:101B8A001F2227502226000E232224222522135008
:101B9A001102F3CF26F0F4CF27F026501C26000EB0
:101BAA001D221E221F2227502226000E2322242213
:101BBA0025221EC01FF01DC01EF01CC01DF01C6A8D
:101BCA0013501002F3CF26F0F4CF27F026501C262C
:101BDA0027501D22000E1E22000E1F2214500F0233
:101BEA00F3CF26F0F4CF27F026501C2627501D22CB
:101BFA00000E1E22000E1F221EC01FF01DC01EF066
:101C0A001CC01DF01C6A13500F02F3CF26F0F4CF4C
:101C1A0027F026501C2627501D22000E1E22000ED9
:101C2A001F2215501002F3CF26F0F4CF27F02650CA
:101C3A00222627502322000E2422000E2522145089
:101C4A001102F3CF26F0F4CF27F026502226275090
:101C5A002322000E2422000E252215501102F3CF52
:101C6A0026F0F4CF27F02650176E2750186E196AFF
:101C7A001A6A19C01AF018C019F017C018F0176AB2
:101C8A001750222618502322195024221A5025228E
:101C9A001CC017F01DC018F01EC019F01FC01AF0A2
:101CAA00190E5DEF0EF0D8901A3219321832173227
:101CBA00E82E58EF0EF017502226185023221950FA
:101CCA0024221A5025221EC01FF01DC01EF01CC05F
:101CDA001DF01C6A205021C017F0186A1726000E42
:101CEA001822820E1724266EFF0E1820276E93EFF5
:101CFA000EF0D89022362336243625361FAE88EFCA
:101D0A000EF08AEF0EF08BEF0EF02280D8901C3680
:101D1A001D361E361F362606D8A0270624AE98EF93
:101D2A000EF09AEF0EF07EEF0EF0000E206E1FAE50
:101D3A00A1EF0EF0A3EF0EF0C7EF0EF0FF0E1C148A
:101D4A00176EFF0E1D14186EFF0E1E14196E7F0EED
:101D5A001F141A6E1750181019101A10D8B4B8EFA9
:101D6A000EF0BAEF0EF0BEEF0EF0010E206EC7EFC6
:101D7A000EF022A0C3EF0EF0C5EF0EF0C7EF0EF083
:101D8A00BAEF0EF02050D8B4CDEF0EF0CFEF0EF030
:101D9A00F3EF0EF0010E2226000E23222422252222
:101DAA0025A0DAEF0EF0DCEF0EF0F3EF0EF022C012
:101DBA0017F023C018F024C019F025C01AF01A34FD
:101DCA001A3219321832173217C022F018C023F00B
:101DDA0019C024F01AC025F0264A272A27BEFEEF8A
:101DEA000EF0275008E12628D8A0FEEF0EF000EFEB
:101DFA000FF00AEF0FF0000E226E000E236E800E17
:101E0A00246E7F0E256E38EF0FF027BE17EF0FF006
:101E1A00275006E12604D8B015EF0FF017EF0FF0A0
:101E2A0023EF0FF0000E226E000E236E000E246EBA
:101E3A00000E256E000E1B6E38EF0FF026C021F043
:101E4A00FF0E2216FF0E23167F0E2416000E2516ED
:101E5A0021A032EF0FF034EF0FF035EF0FF0248EA0
:101E6A00D8902130256E1B50251222C00FF023C0B6
:101E7A0010F024C011F025C012F012000450800B9B
:101E8A00116E04500424186E03AE4EEF0FF050EF9B
:101E9A000FF051EF0FF018801850D8B457EF0FF029
:101EAA0059EF0FF06EEF0FF01828D8A45FEF0FF07C
:101EBA0061EF0FF069EF0FF0000E016E000E026E77
:101ECA00000E036E000E046E038E000E046E76EF93
:101EDA000FF0000E016E000E026E000E036E000E71
:101EEA00046E0850800B111A08500824196E07AEA8
:101EFA0081EF0FF083EF0FF084EF0FF01980195084
:101F0A00D8B48AEF0FF08CEF0FF0A1EF0FF0192879
:101F1A00D8A492EF0FF094EF0FF09CEF0FF0000EA1
:101F2A00056E000E066E000E076E000E086E078E16
:101F3A00000E086EA9EF0FF0000E056E000E066E79
:101F4A00000E076E000E086E0550061007100810E6
:101F5A00D8A4B2EF0FF0B4EF0FF0CCEF0FF0000EF1
:101F6A00016E000E026E000E036E000E046E800EED
:101F7A0003127F0E04121150041201C001F002C0B4
:101F8A0002F003C003F004C004F00FEF11F0185080
:101F9A00D8A4D2EF0FF0D4EF0FF0DEEF0FF0000E5F
:101FAA00016E000E026E000E036E000E046E0FEF3D
:101FBA0011F0195018C009F00A6A095E000E0A5A8F
:101FCA007F0E0924126E000E0A20136E01C00DF056
:101FDA0002C00EF003C00FF004C010F0000E016E34
:101FEA00000E026E000E036E000E046E000E146EDA
:101FFA00000E156E000E166E000E176E000E196E8C
:10200A003FEF10F01950D8B40DEF10F00FEF10F0A9
:10201A0026EF10F0D8900D360E360F361036D890BF
:10202A00013602360336043617AE1EEF10F020EFE3
:10203A0010F021EF10F00180D890143615361636BC
:10204A00173605500D5C06500E5807500F580850A9
:10205A001058D8A033EF10F035EF10F03EEF10F023
:10206A00178C05500D5E06500E5A07500F5A08502D
:10207A00105A192A190E196445EF10F047EF10F09B
:10208A0007EF10F00D500E100F101010D8B450EFCB
:10209A0010F052EF10F06AEF10F014806AEF10F0AF
:1020AA00D890013602360336043617AE5FEF10F0C9
:1020BA0061EF10F062EF10F00180D89014361536F7
:1020CA00163617361206D8A0130603AE6FEF10F0B5
:1020DA0071EF10F055EF10F0000E196E17AE78EF91
:1020EA0010F07AEF10F09EEF10F0FF0E1414096E44
:1020FA00FF0E15140A6EFF0E16140B6E7F0E1714C0
:10210A000C6E09500A100B100C10D8B48FEF10F097
:10211A0091EF10F095EF10F0010E196E9EEF10F08E
:10212A0001A09AEF10F09CEF10F09EEF10F091EFE3
:10213A0010F01950D8B4A4EF10F0A6EF10F0CAEFBF
:10214A0010F0010E0126000E02220322042204A02E
:10215A00B1EF10F0B3EF10F0CAEF10F001C009F0C0
:10216A0002C00AF003C00BF004C00CF00C340C32AD
:10217A000B320A32093209C001F00AC002F00BC060
:10218A0003F00CC004F0124A132A13BED5EF10F064
:10219A00135008E11228D8A0D5EF10F0D7EF10F0AD
:1021AA00E2EF10F0000E136E1268000E016E000EC0
:1021BA00026E000E036E000E046E13BEEFEF10F0F7
:1021CA00135006E11204D8B0EDEF10F0EFEF10F063
:1021DA00FDEF10F0000E136E000E126E000E016E6F
:1021EA00000E026E000E036E000E046E000E116EDB
:1021FA0012C018F018A004EF11F006EF11F009EF61
:10220A0011F0038E0AEF11F0039ED8901830046E75
:10221A00C0EF0FF012001EC034F01FC035F020C00E
:10222A0036F021C037F022C038F023C039F024C07C
:10223A003AF025C03BF03BBE25EF11F028EF11F034
:10224A00010E29EF11F0000E3E6E3E50D8B430EF69
:10225A0011F032EF11F042EF11F03B1E3A1E391E17
:10226A00381E371E361E351E346C000E35223622B5
:10227A003722382239223A223B2200018FBF48EF07
:10228A0011F04AEF11F04BEF11F07F928FBF58EF28
:10229A0011F08F5106E18E05D8B056EF11F058EFC4
:1022AA0011F05EEF11F0000E316E010E306E62EF2A
:1022BA0011F08EC030F08FC031F08CC032F08DC07A
:1022CA0033F03E50D8B46CEF11F06EEF11F085EF99
:1022DA0011F03206D8A033063E50D8A477EF11F099
:1022EA0079EF11F07FEF11F0000E2F6E2B0E2E6E8C
:1022FA0083EF11F0000E2F6E2D0E2E6E2EC03EF0C3
:10230A00000E3D6E4F0E3C6E000E01014F6F0AEF3C
:10231A0012F03C06D8A03D06000E3C24D96E010EF0
:10232A003D20DA6E34C001F035C002F036C003F049
:10233A0037C004F038C005F039C006F03AC007F0DB
:10234A003BC008F00A0E096E000E0A6E000E0B6EF4
:10235A00000E0C6E000E0D6E000E0E6E000E0F6E4D
:10236A00000E106E12EC15F001C026F002C027F024
:10237A0003C028F004C029F005C02AF006C02BF0DB
:10238A0007C02CF008C02DF026C013F027C014F0A7
:10239A009CEC1AF01350300FDF6E3006D8A03106CD
:1023AA003206D8A0330634C001F035C002F036C078
:1023BA0003F037C004F038C005F039C006F03AC05F
:1023CA0007F03BC008F00A0E096E000E0A6E000EF6
:1023DA000B6E000E0C6E000E0D6E000E0E6E000ED1
:1023EA000F6E000E106E4EEC14F001C034F002C0F5
:1023FA0035F003C036F004C037F005C038F006C027
:10240A0039F007C03AF008C03BF03DBE15EF12F0B4
:10241A003D5008E13C04D8A015EF12F017EF12F076
:10242A0047EF12F034503510361037103810391083
:10243A003A103B10D8A424EF12F026EF12F08EEFD8
:10244A0011F031BE33EF12F0315006E13004D8B04A
:10245A0031EF12F033EF12F08EEF11F033BE3EEF90
:10246A0012F0335008E13204D8A03EEF12F040EFE8
:10247A0012F047EF12F07FB245EF12F047EF12F079
:10248A008EEF11F03E50D8B44DEF12F04FEF12F02C
:10249A005AEF12F03C06D8A03D06000E3C24D96E35
:1024AA00010E3D20DA6E3EC0DFFF1CC011F01DC0D8
:1024BA0012F0000E3C24136E010E3D20146E32C041
:1024CA0015F033C016F0A7EC18F0120080C02AF0FD
:1024DA0081C02BF082C02CF083C02DF01AC02AF0E4
:1024EA001BC02BF01CC02CF01DC02DF0810E1E6EDF
:1024FA00FF0E1F6E2AC020F02BC021F02CC022F044
:10250A002DC023F0180E8FEF12F0D890233222320A
:10251A0021322032E82E8AEF12F020501E24286E33
:10252A00000E1F20296E29BEA4EF12F0295009E1DE
:10253A00170E285CD8A0A4EF12F0A6EF12F0B0EFA5
:10254A0012F01AC01AF01BC01BF01CC01CF01DC0F0
:10255A001DF073EF13F029BEB5EF12F0B7EF12F0CA
:10256A0027EF13F028C01EF0FF0E1F6EFF0E206E1D
:10257A007F0E216E000E226E1E66C6EF12F0CEEF9F
:10258A0012F022342232213220321F321E2EC1EFA3
:10259A0012F01FC024F020C025F021C026F022C06E
:1025AA0027F024502A141E6E25502B141F6E265015
:1025BA002C14206E27502D14216E1E501F1020102F
:1025CA002110D8A4EBEF12F0EDEF12F0EFEF12F0BA
:1025DA00A6EF12F02AC01EF02BC01FF02CC020F06C
:1025EA002DC021F0200EFFEF12F0D89021322032B8
:1025FA001F321E32E82EFAEF12F01E501F10201062
:10260A002110D8B40BEF13F00DEF13F015EF13F000
:10261A0024502A2625502B2226502C2227502D22A0
:10262A00241C1E6E251C1F6E261C206E271C216E64
:10263A001E502A161F502B1620502C1621502D16CC
:10264A006BEF13F02AC01EF02BC01FF02CC020F035
:10265A002DC021F0200E37EF13F0D890213220320E
:10266A001F321E32E82E32EF13F01E501F102010B8
:10267A002110D8A443EF13F045EF13F04FEF13F0F6
:10268A00000E2A6E000E2B6E000E2C6E000E2D6EA2
:10269A006BEF13F0D8902A341E6E2B341F6E2C3435
:1026AA00206E2D34216E1E501F1020102110D8B418
:1026BA0061EF13F063EF13F06BEF13F0000E2A6E65
:1026CA00000E2B6E800E2C6EBF0E2D6E2AC01AF0D5
:1026DA002BC01BF02CC01CF02DC01DF01200096E7F
:1026EA000950D8B47BEF13F07DEF13F09FEF13F08E
:1026FA0004BE84EF13F082EF13F09FEF13F001C0D2
:10270A0005F002C006F003C007F004C008F0051E79
:10271A00061E071E081E052A000E06220722082288
:10272A0005C00BF006C00CF007C00DF008C00EF093
:10273A00A7EF13F001C00BF002C00CF003C00DF0BC
:10274A0004C00EF00150021003100410D8A4B0EF18
:10275A0013F0B2EF13F0BCEF13F0000E016E000E8F
:10276A00026E000E036E000E046E4DEF14F0960E0C
:10277A000A6EC6EF13F00A2AD8900E320D320C32C6
:10278A000B32000E0B14056E000E0C14066E000EB2
:10279A000D14076EFE0E0E14086E05500610071073
:1027AA000810D8A4DBEF13F0DDEF13F0C0EF13F03D
:1027BA00EBEF13F00A2A010E0B26000E0C220D2253
:1027CA000E22D8900E320D320C320B32000E0B1440
:1027DA00056E000E0C14066E000E0D14076EFF0E29
:1027EA000E14086E0550061007100810D8A400EF42
:1027FA0014F002EF14F0DFEF13F00AEF14F00A06F8
:10280A00D8900B360C360D360E360DBE0FEF14F07F
:10281A0011EF14F019EF14F0020E0A6017EF14F01A
:10282A0019EF14F004EF14F00AB01EEF14F020EFC1
:10283A0014F021EF14F00D9ED8900A320AC005F068
:10284A00066A076A086A05C008F0076A066A056A1E
:10285A0005500B1206500C1207500D1208500E129A
:10286A000950D8B43BEF14F03DEF14F045EF14F0E3
:10287A0004BE44EF14F042EF14F045EF14F00E8E4C
:10288A000BC001F00CC002F00DC003F00EC004F042
:10289A001200000E126E10BE57EF14F055EF14F02E
:1028AA0069EF14F0101E0F1E0E1E0D1E0C1E0B1EBD
:1028BA000A1E096C000E0A220B220C220D220E227D
:1028CA000F221022010E126E08BE70EF14F06EEF86
:1028DA0014F082EF14F0081E071E061E051E041EC1
:1028EA00031E021E016C000E02220322042205228C
:1028FA00062207220822010E121A20EE13F0070EF2
:10290A00DE6AE806FDE209500A100B100C100D10E1
:10291A000E100F101010D8B495EF14F097EF14F0B2
:10292A00E9EF14F0010E116EA5EF14F0D8900936F4
:10293A000A360B360C360D360E360F361036112A7D
:10294A0010AEAAEF14F0ACEF14F09BEF14F0D8908D
:10295A0013361436153616361736183619361A3609
:10296A000950015C0A5002580B5003580C50045885
:10297A000D5005580E5006580F5007581050085859
:10298A00D8A0CAEF14F0CCEF14F0DDEF14F0095020
:10299A00015E0A50025A0B50035A0C50045A0D5049
:1029AA00055A0E50065A0F50075A1050085A1380EB
:1029BA00D89010320F320E320D320C320B320A32EC
:1029CA000932112EACEF14F01250D8B4EFEF14F014
:1029DA00F1EF14F001EF15F01A1E191E181E171E3A
:1029EA00161E151E141E136C000E14221522162212
:1029FA001722182219221A2213C001F014C002F059
:102A0A0015C003F016C004F017C005F018C006F090
:102A1A0019C007F01AC008F01200000E126E08BEA4
:102A2A001BEF15F019EF15F02DEF15F0081E071E14
:102A3A00061E051E041E031E021E016C000E022243
:102A4A00032204220522062207220822010E126E00
:102A5A0010BE34EF15F032EF15F044EF15F0101EEA
:102A6A000F1E0E1E0D1E0C1E0B1E0A1E096C000EDA
:102A7A000A220B220C220D220E220F2210220950AA
:102A8A000A100B100C100D100E100F101010D8B4E5
:102A9A0051EF15F053EF15F09BEF15F0010E116E83
:102AAA0061EF15F0D89009360A360B360C360D361A
:102ABA000E360F361036112A10AE66EF15F068EF93
:102ACA0015F057EF15F00950015C0A5002580B50E7
:102ADA0003580C5004580D5005580E5006580F5004
:102AEA00075810500858D8A07DEF15F07FEF15F061
:102AFA008FEF15F00950015E0A50025A0B50035A23
:102B0A000C50045A0D50055A0E50065A0F50075AC7
:102B1A001050085AD89010320F320E320D320C3241
:102B2A000B320A320932112E68EF15F01250D8B45E
:102B3A00A1EF15F0A3EF15F0B3EF15F0081E071E6D
:102B4A00061E051E041E031E021E016C000E022232
:102B5A0003220422052206220722082201C001F0CC
:102B6A0002C002F003C003F004C004F005C005F07F
:102B7A0006C006F007C007F008C008F01200000EF1
:102B8A000F6E000E0E6E000E0D6E000E0C6ED0EF64
:102B9A0015F0074A082A07C0F6FF08C0F7FF080021
:102BAA00F550200AD8B4DCEF15F0DEEF15F0CEEFC1
:102BBA0015F007C0F6FF08C0F7FF0800F5CF09F0C7
:102BCA00F70E09240A6E0B6AFF0E0B220B5009E15D
:102BDA00050E0A5CD8A0F4EF15F0F6EF15F0CEEF6B
:102BEA0015F000EF16F0000E0D6E010E0C6E074A7E
:102BFA00082A35EF16F007C0F6FF08C0F7FF0800ED
:102C0A00F550096E0A6A0A50000AD8B40FEF16F096
:102C1A0035EF16F009502B0AD8B4FCEF15F0060A66
:102C2A00D8B4F8EF15F035EF16F00EC001F00FC06A
:102C3A0002F0000E046E0A0E036E06EC1BF007C0CB
:102C4A00F6FF08C0F7FF0800F550015E000E025AB1
:102C5A00300E01240E6E000E02200F6EFCEF15F0EE
:102C6A0007C0F6FF08C0F7FF0800F5CF09F0D00E3D
:102C7A0009240A6E0B6AFF0E0B220B5009E10A0E99
:102C8A000A5CD8A04BEF16F04DEF16F01AEF16F0CB
:102C9A000C500D10D8A454EF16F056EF16F064EF4E
:102CAA0016F00EC009F00FC00AF0091E0A1E094AE2
:102CBA000A2A09C007F00AC008F068EF16F00EC029
:102CCA0007F00FC008F01200033404340A6E0A50E9
:102CDA00D8A472EF16F074EF16F07EEF16F0000E1D
:102CEA00016E000E026E000E036E000E046EEBEF14
:102CFA0016F001C005F002C006F003C007F004C0D8
:102D0A0008F0200E8EEF16F0D890083207320632FD
:102D1A000532E82E89EF16F00550096E038EFF0E74
:102D2A000116FF0E0216FF0E0316000E0416960E6B
:102D3A000A5E0ABEA5EF16F0A3EF16F0BBEF16F077
:102D4A000A50800A970FD8B0ADEF16F0AFEF16F021
:102D5A00B1EF16F074EF16F0D89004320332023253
:102D6A0001320A3EB1EF16F0D3EF16F01F0E0A64D5
:102D7A00C1EF16F0C3EF16F0CBEF16F074EF16F0B2
:102D8A00D89001360236033604360A060A50D8A409
:102D9A00D1EF16F0D3EF16F0C5EF16F00950D8B4FC
:102DAA00D9EF16F0DBEF16F0E3EF16F0041E031E60
:102DBA00021E016C000E02220322042201C001F04D
:102DCA0002C002F003C003F004C004F01200000EB7
:102DDA002814306E000E2914316E800E2A14326EB9
:102DEA007F0E2B14336E3050311032103310D8A4AA
:102DFA0001EF17F003EF17F00BEF17F0000E286E34
:102E0A00000E296E000E2A6E000E2B6E000E2C1478
:102E1A00306E000E2D14316E800E2E14326E7F0E1F
:102E2A002F14336E3050311032103310D8A420EFE3
:102E3A0017F022EF17F02AEF17F0000E2C6E000E93
:102E4A002D6E000E2E6E000E2F6E2BAE2FEF17F08A
:102E5A0031EF17F03AEF17F0286C291ED8B0292A5B
:102E6A002A1ED8B02A2A800E2B562FAE3FEF17F013
:102E7A0041EF17F04AEF17F02C6C2D1ED8B02D2A0F
:102E8A002E1ED8B02E2A800E2F56000E281A000E9B
:102E9A00291A000E2A1A800E2B1A000E2C1A000E5E
:102EAA002D1A000E2E1A800E2F1A2C50285C2D5027
:102EBA0029582E502A582F502B58D8B067EF17F0A0
:102ECA0069EF17F06CEF17F0D8906DEF17F0D88014
:102EDA00120084C00BF085C00CF086C00DF087C0CC
:102EEA000EF001C00BF002C00CF003C00DF004C0DC
:102EFA000EF00BC005F00CC006F00DC007F00EC0B6
:102F0A0008F0180E8EEF17F0D89008320732063202
:102F1A000532E82E89EF17F00550096E0A6A095042
:102F2A000A10D8A49BEF17F09DEF17F0BDEF17F02A
:102F3A00D8900B34056E0C34066E0D34076E0E34C1
:102F4A00086E0550061007100810D8A4AFEF17F046
:102F5A00B1EF17F0B7EF17F0000E026E020E016E16
:102F6A00ECEF17F0000E026E030E016EECEF17F095
:102F7A0009280A10D8A4C4EF17F0C6EF17F0E8EF33
:102F8A0017F00BC005F00CC006F00DC007F00EC01C
:102F9A0008F0090ED8900536063607360836E82EA8
:102FAA00CFEF17F00550061007100810D8B4E0EF5D
:102FBA0017F0E3EF17F0010EE4EF17F0000E016EC1
:102FCA00026AECEF17F0000E026E040E016E120098
:102FDA0003500410D8B4F4EF17F0F6EF17F0FFEF30
:102FEA0017F003500410D8A4FDEF17F0FFEF17F005
:102FFA0004EF18F0015059EC1BF051EF18F020EED5
:10300A0009F00350D9260450DA22DE50DE10D8B473
:10301A0011EF18F013EF18F02EEF18F020EE09F068
:10302A000350D9260450DA2210EE03F00350E126A9
:10303A000450E222DE50E65CE650800A096EDE5059
:10304A00800A0958D8B02CEF18F02EEF18F051EF7B
:10305A0018F020EE03F00350D9260450DA22DECF0E
:10306A0005F0DDCF06F003C0D9FF04C0DAFFDECFDA
:10307A0007F0DDCF08F005500724D96E0650082066
:10308A00DA6E01C0DFFF20EE03F00350D9260450A8
:10309A00DA22DE2A000EDD221200000E0114096E69
:1030AA00000E02140A6E800E03140B6E7F0E0414B7
:1030BA000C6E09500A100B100C10D8A467EF18F008
:1030CA0069EF18F071EF18F0000E016E000E026E33
:1030DA00000E036E000E046E000E0514096E000E3B
:1030EA0006140A6E800E07140B6E7F0E08140C6EFF
:1030FA0009500A100B100C10D8A486EF18F088EFAC
:10310A0018F090EF18F0000E056E000E066E000E15
:10311A00076E000E086E055001180FE106500218DE
:10312A000CE10750031809E108500418D8B4A0EFBD
:10313A0018F0A2EF18F0A5EF18F0D890A6EF18F043
:10314A00D88012007FA0ACEF18F0AEEF18F0B8EFFD
:10315A0018F013C00AF014C00BF011C00CF012C022
:10316A000DF05AEC1AF016BEBDEF18F0BFEF18F0CA
:10317A00C5EF18F015C01AF016C01BF0C9EF18F009
:10318A00000E1B6E000E1A6E000E196E000E186EDF
:10319A00DBEF18F0000E026E200E016E11C003F074
:1031AA0012C004F0EDEC17F0184A192A1A50185CEC
:1031BA001950800A176E1B50800A1758D8A0E8EFDA
:1031CA0018F0EAEF18F0CFEF18F07FB0EFEF18F031
:1031DA00F1EF18F0FBEF18F013C00AF014C00BF06F
:1031EA0011C00CF012C00DF05AEC1AF01200030EC6
:1031FA00296E080E286E770EE82EFED7282EFCD7E9
:10320A00292EFAD700F0C282C2B20EEF19F010EFDF
:10321A0019F009EF19F0C4CF90F00001916B9051A9
:10322A00286EC350906F28C091F090C001F091C0F1
:10323A0002F0036A046A000E74EC13F001C00FF086
:10324A0002C010F003C011F004C012F04B0E136E4E
:10325A003C0E146EA00E156E3B0E166E2EEC0DF083
:10326A000FC088F010C089F011C08AF012C08BF02C
:10327A00120004BE4DEF19F004500310021006E1CB
:10328A000104D8B04BEF19F04DEF19F068EF19F0BF
:10329A0001C005F002C006F003C007F004C008F040
:1032AA00051E061E071E081E052A000E06220722F4
:1032BA00082205C001F006C002F007C003F008C0EA
:1032CA0004F070EF19F001C001F002C002F003C06F
:1032DA0003F004C004F01200920E0001DA6F000E2F
:1032EA00DB6F010EDC6F060EDD6F90C0DEF091C061
:1032FA00DFF088C0E0F089C0E1F08AC0E2F08BC05C
:10330A00E3F09BEC19F0920E026E000E036ED8ECFD
:10331A001AF0030E0001F26F080EF16F770EE82E15
:10332A00FED7F12FFCD7F22FFAD71200DE0E0001DA
:10333A00E46F000EE56FDAC0E6F0DBC0E7F0000EDE
:10334A00EA6F000EE96F000EF06F000EEF6FE60EE7
:10335A00D26F000ED36FDCC0D4F0DDC0D5F0E40E1E
:10336A00D66F000ED76FC4EC19F00001E951DA25C7
:10337A00D96EEA51DB21DA6E000EDF6E1200D4C07C
:10338A00D8F0D5C0D9F0D8EF19F0D2C069F0D3C0BF
:10339A006AF0D80E6B6E000E6C6ED6C06DF0D7C098
:1033AA006EF033EC08F0D8C0F6FFD9C0F7FF08007A
:1033BA00F5500009D8A4E4EF19F0E6EF19F0CAEFC6
:1033CA0019F0000E0001D36F000ED26F120003C075
:1033DA0009F004C00AF001C007F002C008F006EFC5
:1033EA001AF009C0D9FF0AC0DAFFDF500B6E094A8A
:1033FA000A2A07C0D9FF08C0DAFF0BC0DFFF074A55
:10340A00082A0506D8A00606052806E10628D8A433
:10341A0011EF1AF013EF1AF0F6EF19F01200000E7E
:10342A002C1A000E2D1A000E2E1A800E2F1A28C0E2
:10343A0001F029C002F02AC003F02BC004F02CC00E
:10344A0005F02DC006F02EC007F02FC008F0CEEC14
:10345A000AF001C028F002C029F003C02AF004C013
:10346A002BF01200010E056E200E01180210D8B4BE
:10347A0041EF1AF043EF1AF056EF1AF0F70E012453
:10348A00036EFF0E0220046E045009E1050E035C70
:10349A00D8A052EF1AF054EF1AF056EF1AF0000EB5
:1034AA00056E05C001F0026A1200000E106E000ED1
:1034BA000F6E6BEF1AF00EC001F0026A0CC003F037
:1034CA000DC004F0EDEC17F00F4A102A0F500A2431
:1034DA00D96E10500B20DA6EDF500E6E0E50D8A443
:1034EA0079EF1AF07BEF1AF060EF1AF0120003C0BE
:1034FA0005F004C006F001C007F002C008F005C0DC
:10350A00F6FF06C0F7FF054A062A07C0D9FF08C01A
:10351A00DAFF074A082A0800F5CFDFFFDF50D8A4F0
:10352A0099EF1AF09BEF1AF084EF1AF0120014BE0A
:10353A00A9EF1AF0145006E11304D8B0A7EF1AF055
:10354A00A9EF1AF0B7EF1AF013C015F014C016F06D
:10355A00151E161E154A162A15C013F016C014F0A9
:10356A00BBEF1AF013C013F014C014F0120001508C
:10357A00021003100410D8B4C5EF1AF0C7EF1AF0FE
:10358A00CFEF1AF0000E011A000E021A000E031AEB
:10359A00800E041A01C001F002C002F003C003F059
:1035AA0004C004F01200E3EF1AF002C0D9FF03C00E
:1035BA00DAFFDF5039EC1BF0024A032A02C0D9FFB6
:1035CA0003C0DAFFDF50D8A4EDEF1AF0EFEF1AF0DC
:1035DA00DAEF1AF01200D00E0124036EFF0E022059
:1035EA00046E04500AE10A0E035CD8A0FFEF1AF039
:1035FA0002EF1BF0010E03EF1BF0000E016E026AD0
:10360A00120001500302F3CF05F0F4CF06F0015087
:10361A000402F350062602500302F350062605C0A0
:10362A0001F006C002F0120001EE00F0500EEE6A40
:10363A00E806FDE100EE80F0520EEE6AE806FDE1D2
:10364A007F6A000EF86E00012BEF1BF054EC1BF0A2
:10365A004DEC1BF044EC1BF0FCEC18F071EC19F08B
:10366A0031EF1BF000EF00F0016EACA23FEF1BF050
:10367A0041EF1BF03AEF1BF001C0ADFF1200AC8A1C
:10368A00AB88AC98AB8EAC94B8960C0EAF6E1200A9
:10369A00010EC26E0E0EC16E870EC06E1200000EB3
:0A36AA00D36E000E9B6E120012009A
:020000040020DA
:08000000FFFFFFFFFFFFFFFF00
:020000040030CA
:0E000000FF021F1EFF8381FF0FC00FE00F40A5
:00000001FF
