:040000009CEF3FF042
:107EDE00000ED36E000E9B6E1200C00EF26E000EE0
:107EEE009D6E12000F0EC16E000E956E836812000D
:107EFE00AC8AAB88AC98AB8EAC94B8960C0EAF6EC9
:107F0E0012009EAA8DEF3FF08FEF3FF088EF3FF00B
:107F1E00AE501200116EACA297EF3FF099EF3FF00A
:107F2E0092EF3FF011C0ADFF120000EE01F0100E07
:107F3E00EE6AE806FDE1000EF86E0001BFEF3FF0BD
:107F4E00B2EF3FF012C0D9FF13C0DAFFDF5091EC51
:107F5E003FF0124A132A12C0D9FF13C0DAFFDF50C6
:107F6E00D8A4BCEF3FF0BEEF3FF0A9EF3FF01200F8
:107F7E006FEC3FF079EC3FF074EC3FF07FEC3FF0AC
:107F8E0088EC3FF0016E010E126E000E136EA7EC20
:107F9E003FF0E1EF3FF08368C7EF3FF0FE0E836ED8
:107FAE00C7EF3FF0FC0E836EC7EF3FF0F80E836E07
:107FBE00C7EF3FF00150146E156A1550000AD8B481
:107FCE00EBEF3FF0C7EF3FF01450410AD8B4D2EFB9
:107FDE003FF0030AD8B4D5EF3FF0010AD8B4D9EF79
:107FEE003FF0070AD8B4DDEF3FF0C7EF3FF000EFE8
:027FFE0000F091
:020000040020DA
:08000000FFFFFFFFFFFFFFFF00
:020000040030CA
:0E000000FF02191EFF8181FF0FC00FE00F40AD
:00000001FF
