:0400000007EF00F016
:1000080018823FED00F073EF00F0A8EC00F09DECD3
:1000180000F0A3EC00F08BEC00F020EF00F0836818
:1000280020EF00F0FE0E836E20EF00F0FC0E836ED2
:1000380020EF00F0F80E836E0150166E176A175005
:10004800000AD8B42AEF00F020EF00F01650410A59
:10005800D8B413EF00F0030AD8B416EF00F0010A81
:10006800D8B41AEF00F0070AD8B41EEF00F020EF5A
:1000780000F007EF00F00600D9CF14F0DACF15F042
:100088009EAA49EF00F04BEF00F054EF00F094EC1B
:1000980000F0016E010E126E000E136E5BEC00F0A4
:1000A8009E9A15C0DAFF14C0D9FF1892110066EFA6
:1000B80000F012C0D9FF13C0DAFFDF5080EC00F067
:1000C800124A132A12C0D9FF13C0DAFFDF50D8A48E
:1000D80070EF00F072EF00F05DEF00F0120000EE3C
:1000E80001F0100EEE6AE806FDE118901892000E75
:1000F800F86E000109EF00F0116EACA286EF00F077
:1001080088EF00F081EF00F011C0ADFF1200AC8A5B
:10011800AB88AC98AB8EAC94B8960C0EAF6E120050
:100128009EAA99EF00F09BEF00F094EF00F0AE501C
:1001380012000F0EC16E000E956E83681200C00E7D
:10014800F26E200E9D6E1200000ED36E000E9B6E96
:02015800120093
:020000040020DA
:08000000FFFFFFFFFFFFFFFF00
:020000040030CA
:0E000000FF02191EFF8181FF0FC00FE00F40AD
:00000001FF
