:0400000007EF00F016
:10000800468209ED00F049EF00F00600D9CF44F030
:10001800DACF45F09EAA13EF00F015EF00F01EEFBF
:1000280000F068EC00F0016E010E426E000E436EA7
:1000380025EC00F09E9A45C0DAFF44C0D9FF4692ED
:10004800110030EF00F042C0D9FF43C0DAFFDF50A3
:1000580054EC00F0424A432A42C0D9FF43C0DAFFB9
:10006800DF50D8A43AEF00F03CEF00F027EF00F0A3
:10007800120076EC00F07BEC00F071EC00F05FEC25
:1000880000F045EF00F007EF00F000EE01F0400E41
:10009800EE6AE806FDE14690469200013DEF00F069
:1000A800416EACA25AEF00F05CEF00F055EF00F0A3
:1000B80041C0ADFF1200AC8AAB88AC98AB8EAC9453
:1000C800B8960C0EAF6E12009EAA6DEF00F06FEF9F
:1000D80000F068EF00F0AE501200C00EF26E200E75
:1000E8009D6E1200000ED36E000E9B6E12000F0E56
:0400F800C16E1200C3
:020000040020DA
:08000000FFFFFFFFFFFFFFFF00
:020000040030CA
:0E000000FF02191EFF8181FF0FC00FE00F40AD
:00000001FF
